{
  "_format": "hh-sol-artifact-1",
  "contractName": "ClippyDigital",
  "sourceName": "contracts/ClippyDigital.sol",
  "abi": [
    {
      "inputs": [],
      "stateMutability": "nonpayable",
      "type": "constructor"
    },
    {
      "anonymous": false,
      "inputs": [
        {
          "indexed": true,
          "internalType": "address",
          "name": "owner",
          "type": "address"
        },
        {
          "indexed": true,
          "internalType": "address",
          "name": "approved",
          "type": "address"
        },
        {
          "indexed": true,
          "internalType": "uint256",
          "name": "tokenId",
          "type": "uint256"
        }
      ],
      "name": "Approval",
      "type": "event"
    },
    {
      "anonymous": false,
      "inputs": [
        {
          "indexed": true,
          "internalType": "address",
          "name": "owner",
          "type": "address"
        },
        {
          "indexed": true,
          "internalType": "address",
          "name": "operator",
          "type": "address"
        },
        {
          "indexed": false,
          "internalType": "bool",
          "name": "approved",
          "type": "bool"
        }
      ],
      "name": "ApprovalForAll",
      "type": "event"
    },
    {
      "anonymous": false,
      "inputs": [
        {
          "indexed": true,
          "internalType": "address",
          "name": "previousOwner",
          "type": "address"
        },
        {
          "indexed": true,
          "internalType": "address",
          "name": "newOwner",
          "type": "address"
        }
      ],
      "name": "OwnershipTransferred",
      "type": "event"
    },
    {
      "anonymous": false,
      "inputs": [
        {
          "indexed": true,
          "internalType": "address",
          "name": "from",
          "type": "address"
        },
        {
          "indexed": true,
          "internalType": "address",
          "name": "to",
          "type": "address"
        },
        {
          "indexed": true,
          "internalType": "uint256",
          "name": "tokenId",
          "type": "uint256"
        }
      ],
      "name": "Transfer",
      "type": "event"
    },
    {
      "inputs": [
        {
          "internalType": "address",
          "name": "to",
          "type": "address"
        },
        {
          "internalType": "uint256",
          "name": "tokenId",
          "type": "uint256"
        }
      ],
      "name": "approve",
      "outputs": [],
      "stateMutability": "nonpayable",
      "type": "function"
    },
    {
      "inputs": [
        {
          "internalType": "address",
          "name": "owner",
          "type": "address"
        }
      ],
      "name": "balanceOf",
      "outputs": [
        {
          "internalType": "uint256",
          "name": "",
          "type": "uint256"
        }
      ],
      "stateMutability": "view",
      "type": "function"
    },
    {
      "inputs": [],
      "name": "clippyPhygitalAddress",
      "outputs": [
        {
          "internalType": "address",
          "name": "",
          "type": "address"
        }
      ],
      "stateMutability": "view",
      "type": "function"
    },
    {
      "inputs": [
        {
          "internalType": "uint256",
          "name": "tokenId",
          "type": "uint256"
        }
      ],
      "name": "getApproved",
      "outputs": [
        {
          "internalType": "address",
          "name": "",
          "type": "address"
        }
      ],
      "stateMutability": "view",
      "type": "function"
    },
    {
      "inputs": [
        {
          "internalType": "address",
          "name": "owner",
          "type": "address"
        },
        {
          "internalType": "address",
          "name": "operator",
          "type": "address"
        }
      ],
      "name": "isApprovedForAll",
      "outputs": [
        {
          "internalType": "bool",
          "name": "",
          "type": "bool"
        }
      ],
      "stateMutability": "view",
      "type": "function"
    },
    {
      "inputs": [
        {
          "internalType": "address",
          "name": "recipient",
          "type": "address"
        },
        {
          "internalType": "string",
          "name": "uri",
          "type": "string"
        }
      ],
      "name": "mint",
      "outputs": [
        {
          "internalType": "uint256",
          "name": "",
          "type": "uint256"
        }
      ],
      "stateMutability": "payable",
      "type": "function"
    },
    {
      "inputs": [],
      "name": "name",
      "outputs": [
        {
          "internalType": "string",
          "name": "",
          "type": "string"
        }
      ],
      "stateMutability": "view",
      "type": "function"
    },
    {
      "inputs": [],
      "name": "owner",
      "outputs": [
        {
          "internalType": "address",
          "name": "",
          "type": "address"
        }
      ],
      "stateMutability": "view",
      "type": "function"
    },
    {
      "inputs": [
        {
          "internalType": "uint256",
          "name": "tokenId",
          "type": "uint256"
        }
      ],
      "name": "ownerOf",
      "outputs": [
        {
          "internalType": "address",
          "name": "",
          "type": "address"
        }
      ],
      "stateMutability": "view",
      "type": "function"
    },
    {
      "inputs": [],
      "name": "renounceOwnership",
      "outputs": [],
      "stateMutability": "nonpayable",
      "type": "function"
    },
    {
      "inputs": [
        {
          "internalType": "address",
          "name": "from",
          "type": "address"
        },
        {
          "internalType": "address",
          "name": "to",
          "type": "address"
        },
        {
          "internalType": "uint256",
          "name": "tokenId",
          "type": "uint256"
        }
      ],
      "name": "safeTransferFrom",
      "outputs": [],
      "stateMutability": "nonpayable",
      "type": "function"
    },
    {
      "inputs": [
        {
          "internalType": "address",
          "name": "from",
          "type": "address"
        },
        {
          "internalType": "address",
          "name": "to",
          "type": "address"
        },
        {
          "internalType": "uint256",
          "name": "tokenId",
          "type": "uint256"
        },
        {
          "internalType": "bytes",
          "name": "_data",
          "type": "bytes"
        }
      ],
      "name": "safeTransferFrom",
      "outputs": [],
      "stateMutability": "nonpayable",
      "type": "function"
    },
    {
      "inputs": [
        {
          "internalType": "address",
          "name": "operator",
          "type": "address"
        },
        {
          "internalType": "bool",
          "name": "approved",
          "type": "bool"
        }
      ],
      "name": "setApprovalForAll",
      "outputs": [],
      "stateMutability": "nonpayable",
      "type": "function"
    },
    {
      "inputs": [
        {
          "internalType": "address",
          "name": "_clippyPhygitalAddress",
          "type": "address"
        }
      ],
      "name": "setWhitelistMintAddress",
      "outputs": [],
      "stateMutability": "nonpayable",
      "type": "function"
    },
    {
      "inputs": [
        {
          "internalType": "bytes4",
          "name": "interfaceId",
          "type": "bytes4"
        }
      ],
      "name": "supportsInterface",
      "outputs": [
        {
          "internalType": "bool",
          "name": "",
          "type": "bool"
        }
      ],
      "stateMutability": "view",
      "type": "function"
    },
    {
      "inputs": [],
      "name": "symbol",
      "outputs": [
        {
          "internalType": "string",
          "name": "",
          "type": "string"
        }
      ],
      "stateMutability": "view",
      "type": "function"
    },
    {
      "inputs": [
        {
          "internalType": "uint256",
          "name": "tokenId",
          "type": "uint256"
        }
      ],
      "name": "tokenURI",
      "outputs": [
        {
          "internalType": "string",
          "name": "",
          "type": "string"
        }
      ],
      "stateMutability": "view",
      "type": "function"
    },
    {
      "inputs": [
        {
          "internalType": "address",
          "name": "from",
          "type": "address"
        },
        {
          "internalType": "address",
          "name": "to",
          "type": "address"
        },
        {
          "internalType": "uint256",
          "name": "tokenId",
          "type": "uint256"
        }
      ],
      "name": "transferFrom",
      "outputs": [],
      "stateMutability": "nonpayable",
      "type": "function"
    },
    {
      "inputs": [
        {
          "internalType": "address",
          "name": "newOwner",
          "type": "address"
        }
      ],
      "name": "transferOwnership",
      "outputs": [],
      "stateMutability": "nonpayable",
      "type": "function"
    }
  ],
  "bytecode": "0x60806040523480156200001157600080fd5b506040518060400160405280600d81526020017f436c697070794469676974616c000000000000000000000000000000000000008152506040518060400160405280600581526020017f434c495044000000000000000000000000000000000000000000000000000000815250816000908051906020019062000096929190620001a6565b508060019080519060200190620000af929190620001a6565b505050620000d2620000c6620000d860201b60201c565b620000e060201b60201c565b620002bb565b600033905090565b6000600660009054906101000a900473ffffffffffffffffffffffffffffffffffffffff16905081600660006101000a81548173ffffffffffffffffffffffffffffffffffffffff021916908373ffffffffffffffffffffffffffffffffffffffff1602179055508173ffffffffffffffffffffffffffffffffffffffff168173ffffffffffffffffffffffffffffffffffffffff167f8be0079c531659141344cd1fd0a4f28419497f9722a3daafe3b4186f6b6457e060405160405180910390a35050565b828054620001b49062000285565b90600052602060002090601f016020900481019282620001d8576000855562000224565b82601f10620001f357805160ff191683800117855562000224565b8280016001018555821562000224579182015b828111156200022357825182559160200191906001019062000206565b5b50905062000233919062000237565b5090565b5b808211156200025257600081600090555060010162000238565b5090565b7f4e487b7100000000000000000000000000000000000000000000000000000000600052602260045260246000fd5b600060028204905060018216806200029e57607f821691505b60208210811415620002b557620002b462000256565b5b50919050565b612ea980620002cb6000396000f3fe6080604052600436106101145760003560e01c8063715018a6116100a0578063c87b56dd11610064578063c87b56dd1461039b578063d0def521146103d8578063e985e9c514610408578063ecae5ca414610445578063f2fde38b1461047057610114565b8063715018a6146102dc5780638da5cb5b146102f357806395d89b411461031e578063a22cb46514610349578063b88d4fde1461037257610114565b806320532ecc116100e757806320532ecc146101e757806323b872dd1461021057806342842e0e146102395780636352211e1461026257806370a082311461029f57610114565b806301ffc9a71461011957806306fdde0314610156578063081812fc14610181578063095ea7b3146101be575b600080fd5b34801561012557600080fd5b50610140600480360381019061013b9190611c76565b610499565b60405161014d9190611cbe565b60405180910390f35b34801561016257600080fd5b5061016b61057b565b6040516101789190611d72565b60405180910390f35b34801561018d57600080fd5b506101a860048036038101906101a39190611dca565b61060d565b6040516101b59190611e38565b60405180910390f35b3480156101ca57600080fd5b506101e560048036038101906101e09190611e7f565b610692565b005b3480156101f357600080fd5b5061020e60048036038101906102099190611ebf565b6107aa565b005b34801561021c57600080fd5b5061023760048036038101906102329190611eec565b61086a565b005b34801561024557600080fd5b50610260600480360381019061025b9190611eec565b6108ca565b005b34801561026e57600080fd5b5061028960048036038101906102849190611dca565b6108ea565b6040516102969190611e38565b60405180910390f35b3480156102ab57600080fd5b506102c660048036038101906102c19190611ebf565b61099c565b6040516102d39190611f4e565b60405180910390f35b3480156102e857600080fd5b506102f1610a54565b005b3480156102ff57600080fd5b50610308610adc565b6040516103159190611e38565b60405180910390f35b34801561032a57600080fd5b50610333610b06565b6040516103409190611d72565b60405180910390f35b34801561035557600080fd5b50610370600480360381019061036b9190611f95565b610b98565b005b34801561037e57600080fd5b506103996004803603810190610394919061210a565b610bae565b005b3480156103a757600080fd5b506103c260048036038101906103bd9190611dca565b610c10565b6040516103cf9190611d72565b60405180910390f35b6103f260048036038101906103ed919061222e565b610d03565b6040516103ff9190611f4e565b60405180910390f35b34801561041457600080fd5b5061042f600480360381019061042a919061228a565b610e5c565b60405161043c9190611cbe565b60405180910390f35b34801561045157600080fd5b5061045a610ef0565b6040516104679190611e38565b60405180910390f35b34801561047c57600080fd5b5061049760048036038101906104929190611ebf565b610f16565b005b60007f80ac58cd000000000000000000000000000000000000000000000000000000007bffffffffffffffffffffffffffffffffffffffffffffffffffffffff1916827bffffffffffffffffffffffffffffffffffffffffffffffffffffffff1916148061056457507f5b5e139f000000000000000000000000000000000000000000000000000000007bffffffffffffffffffffffffffffffffffffffffffffffffffffffff1916827bffffffffffffffffffffffffffffffffffffffffffffffffffffffff1916145b8061057457506105738261100e565b5b9050919050565b60606000805461058a906122f9565b80601f01602080910402602001604051908101604052809291908181526020018280546105b6906122f9565b80156106035780601f106105d857610100808354040283529160200191610603565b820191906000526020600020905b8154815290600101906020018083116105e657829003601f168201915b5050505050905090565b600061061882611078565b610657576040517f08c379a000000000000000000000000000000000000000000000000000000000815260040161064e9061239d565b60405180910390fd5b6004600083815260200190815260200160002060009054906101000a900473ffffffffffffffffffffffffffffffffffffffff169050919050565b600061069d826108ea565b90508073ffffffffffffffffffffffffffffffffffffffff168373ffffffffffffffffffffffffffffffffffffffff16141561070e576040517f08c379a00000000000000000000000000000000000000000000000000000000081526004016107059061242f565b60405180910390fd5b8073ffffffffffffffffffffffffffffffffffffffff1661072d6110e4565b73ffffffffffffffffffffffffffffffffffffffff16148061075c575061075b816107566110e4565b610e5c565b5b61079b576040517f08c379a0000000000000000000000000000000000000000000000000000000008152600401610792906124c1565b60405180910390fd5b6107a583836110ec565b505050565b6107b26110e4565b73ffffffffffffffffffffffffffffffffffffffff166107d0610adc565b73ffffffffffffffffffffffffffffffffffffffff1614610826576040517f08c379a000000000000000000000000000000000000000000000000000000000815260040161081d9061252d565b60405180910390fd5b80600760006101000a81548173ffffffffffffffffffffffffffffffffffffffff021916908373ffffffffffffffffffffffffffffffffffffffff16021790555050565b61087b6108756110e4565b826111a5565b6108ba576040517f08c379a00000000000000000000000000000000000000000000000000000000081526004016108b1906125bf565b60405180910390fd5b6108c5838383611283565b505050565b6108e583838360405180602001604052806000815250610bae565b505050565b6000806002600084815260200190815260200160002060009054906101000a900473ffffffffffffffffffffffffffffffffffffffff169050600073ffffffffffffffffffffffffffffffffffffffff168173ffffffffffffffffffffffffffffffffffffffff161415610993576040517f08c379a000000000000000000000000000000000000000000000000000000000815260040161098a90612651565b60405180910390fd5b80915050919050565b60008073ffffffffffffffffffffffffffffffffffffffff168273ffffffffffffffffffffffffffffffffffffffff161415610a0d576040517f08c379a0000000000000000000000000000000000000000000000000000000008152600401610a04906126e3565b60405180910390fd5b600360008373ffffffffffffffffffffffffffffffffffffffff1673ffffffffffffffffffffffffffffffffffffffff168152602001908152602001600020549050919050565b610a5c6110e4565b73ffffffffffffffffffffffffffffffffffffffff16610a7a610adc565b73ffffffffffffffffffffffffffffffffffffffff1614610ad0576040517f08c379a0000000000000000000000000000000000000000000000000000000008152600401610ac79061252d565b60405180910390fd5b610ada60006114ea565b565b6000600660009054906101000a900473ffffffffffffffffffffffffffffffffffffffff16905090565b606060018054610b15906122f9565b80601f0160208091040260200160405190810160405280929190818152602001828054610b41906122f9565b8015610b8e5780601f10610b6357610100808354040283529160200191610b8e565b820191906000526020600020905b815481529060010190602001808311610b7157829003601f168201915b5050505050905090565b610baa610ba36110e4565b83836115b0565b5050565b610bbf610bb96110e4565b836111a5565b610bfe576040517f08c379a0000000000000000000000000000000000000000000000000000000008152600401610bf5906125bf565b60405180910390fd5b610c0a8484848461171d565b50505050565b6060610c1b82611078565b610c5a576040517f08c379a0000000000000000000000000000000000000000000000000000000008152600401610c5190612775565b60405180910390fd5b6000600960008481526020019081526020016000208054610c7a906122f9565b80601f0160208091040260200160405190810160405280929190818152602001828054610ca6906122f9565b8015610cf35780601f10610cc857610100808354040283529160200191610cf3565b820191906000526020600020905b815481529060010190602001808311610cd657829003601f168201915b5050505050905080915050919050565b60008073ffffffffffffffffffffffffffffffffffffffff16600760009054906101000a900473ffffffffffffffffffffffffffffffffffffffff1673ffffffffffffffffffffffffffffffffffffffff161415610d96576040517f08c379a0000000000000000000000000000000000000000000000000000000008152600401610d8d90612807565b60405180910390fd5b600760009054906101000a900473ffffffffffffffffffffffffffffffffffffffff1673ffffffffffffffffffffffffffffffffffffffff163373ffffffffffffffffffffffffffffffffffffffff1614610e26576040517f08c379a0000000000000000000000000000000000000000000000000000000008152600401610e1d90612899565b60405180910390fd5b610e306008611779565b6000610e3c600861178f565b9050610e48848261179d565b610e528184611977565b8091505092915050565b6000600560008473ffffffffffffffffffffffffffffffffffffffff1673ffffffffffffffffffffffffffffffffffffffff16815260200190815260200160002060008373ffffffffffffffffffffffffffffffffffffffff1673ffffffffffffffffffffffffffffffffffffffff16815260200190815260200160002060009054906101000a900460ff16905092915050565b600760009054906101000a900473ffffffffffffffffffffffffffffffffffffffff1681565b610f1e6110e4565b73ffffffffffffffffffffffffffffffffffffffff16610f3c610adc565b73ffffffffffffffffffffffffffffffffffffffff1614610f92576040517f08c379a0000000000000000000000000000000000000000000000000000000008152600401610f899061252d565b60405180910390fd5b600073ffffffffffffffffffffffffffffffffffffffff168173ffffffffffffffffffffffffffffffffffffffff161415611002576040517f08c379a0000000000000000000000000000000000000000000000000000000008152600401610ff99061292b565b60405180910390fd5b61100b816114ea565b50565b60007f01ffc9a7000000000000000000000000000000000000000000000000000000007bffffffffffffffffffffffffffffffffffffffffffffffffffffffff1916827bffffffffffffffffffffffffffffffffffffffffffffffffffffffff1916149050919050565b60008073ffffffffffffffffffffffffffffffffffffffff166002600084815260200190815260200160002060009054906101000a900473ffffffffffffffffffffffffffffffffffffffff1673ffffffffffffffffffffffffffffffffffffffff1614159050919050565b600033905090565b816004600083815260200190815260200160002060006101000a81548173ffffffffffffffffffffffffffffffffffffffff021916908373ffffffffffffffffffffffffffffffffffffffff160217905550808273ffffffffffffffffffffffffffffffffffffffff1661115f836108ea565b73ffffffffffffffffffffffffffffffffffffffff167f8c5be1e5ebec7d5bd14f71427d1e84f3dd0314c0f7b2291e5b200ac8c7c3b92560405160405180910390a45050565b60006111b082611078565b6111ef576040517f08c379a00000000000000000000000000000000000000000000000000000000081526004016111e6906129bd565b60405180910390fd5b60006111fa836108ea565b90508073ffffffffffffffffffffffffffffffffffffffff168473ffffffffffffffffffffffffffffffffffffffff16148061126957508373ffffffffffffffffffffffffffffffffffffffff166112518461060d565b73ffffffffffffffffffffffffffffffffffffffff16145b8061127a57506112798185610e5c565b5b91505092915050565b8273ffffffffffffffffffffffffffffffffffffffff166112a3826108ea565b73ffffffffffffffffffffffffffffffffffffffff16146112f9576040517f08c379a00000000000000000000000000000000000000000000000000000000081526004016112f090612a4f565b60405180910390fd5b600073ffffffffffffffffffffffffffffffffffffffff168273ffffffffffffffffffffffffffffffffffffffff161415611369576040517f08c379a000000000000000000000000000000000000000000000000000000000815260040161136090612ae1565b60405180910390fd5b6113748383836119a3565b61137f6000826110ec565b6001600360008573ffffffffffffffffffffffffffffffffffffffff1673ffffffffffffffffffffffffffffffffffffffff16815260200190815260200160002060008282546113cf9190612b30565b925050819055506001600360008473ffffffffffffffffffffffffffffffffffffffff1673ffffffffffffffffffffffffffffffffffffffff16815260200190815260200160002060008282546114269190612b64565b92505081905550816002600083815260200190815260200160002060006101000a81548173ffffffffffffffffffffffffffffffffffffffff021916908373ffffffffffffffffffffffffffffffffffffffff160217905550808273ffffffffffffffffffffffffffffffffffffffff168473ffffffffffffffffffffffffffffffffffffffff167fddf252ad1be2c89b69c2b068fc378daa952ba7f163c4a11628f55a4df523b3ef60405160405180910390a46114e58383836119a8565b505050565b6000600660009054906101000a900473ffffffffffffffffffffffffffffffffffffffff16905081600660006101000a81548173ffffffffffffffffffffffffffffffffffffffff021916908373ffffffffffffffffffffffffffffffffffffffff1602179055508173ffffffffffffffffffffffffffffffffffffffff168173ffffffffffffffffffffffffffffffffffffffff167f8be0079c531659141344cd1fd0a4f28419497f9722a3daafe3b4186f6b6457e060405160405180910390a35050565b8173ffffffffffffffffffffffffffffffffffffffff168373ffffffffffffffffffffffffffffffffffffffff16141561161f576040517f08c379a000000000000000000000000000000000000000000000000000000000815260040161161690612c06565b60405180910390fd5b80600560008573ffffffffffffffffffffffffffffffffffffffff1673ffffffffffffffffffffffffffffffffffffffff16815260200190815260200160002060008473ffffffffffffffffffffffffffffffffffffffff1673ffffffffffffffffffffffffffffffffffffffff16815260200190815260200160002060006101000a81548160ff0219169083151502179055508173ffffffffffffffffffffffffffffffffffffffff168373ffffffffffffffffffffffffffffffffffffffff167f17307eab39ab6107e8899845ad3d59bd9653f200f220920489ca2b5937696c31836040516117109190611cbe565b60405180910390a3505050565b611728848484611283565b611734848484846119ad565b611773576040517f08c379a000000000000000000000000000000000000000000000000000000000815260040161176a90612c98565b60405180910390fd5b50505050565b6001816000016000828254019250508190555050565b600081600001549050919050565b600073ffffffffffffffffffffffffffffffffffffffff168273ffffffffffffffffffffffffffffffffffffffff16141561180d576040517f08c379a000000000000000000000000000000000000000000000000000000000815260040161180490612d04565b60405180910390fd5b61181681611078565b15611856576040517f08c379a000000000000000000000000000000000000000000000000000000000815260040161184d90612d70565b60405180910390fd5b611862600083836119a3565b6001600360008473ffffffffffffffffffffffffffffffffffffffff1673ffffffffffffffffffffffffffffffffffffffff16815260200190815260200160002060008282546118b29190612b64565b92505081905550816002600083815260200190815260200160002060006101000a81548173ffffffffffffffffffffffffffffffffffffffff021916908373ffffffffffffffffffffffffffffffffffffffff160217905550808273ffffffffffffffffffffffffffffffffffffffff16600073ffffffffffffffffffffffffffffffffffffffff167fddf252ad1be2c89b69c2b068fc378daa952ba7f163c4a11628f55a4df523b3ef60405160405180910390a4611973600083836119a8565b5050565b8060096000848152602001908152602001600020908051906020019061199e929190611b67565b505050565b505050565b505050565b60006119ce8473ffffffffffffffffffffffffffffffffffffffff16611b44565b15611b37578373ffffffffffffffffffffffffffffffffffffffff1663150b7a026119f76110e4565b8786866040518563ffffffff1660e01b8152600401611a199493929190612de5565b602060405180830381600087803b158015611a3357600080fd5b505af1925050508015611a6457506040513d601f19601f82011682018060405250810190611a619190612e46565b60015b611ae7573d8060008114611a94576040519150601f19603f3d011682016040523d82523d6000602084013e611a99565b606091505b50600081511415611adf576040517f08c379a0000000000000000000000000000000000000000000000000000000008152600401611ad690612c98565b60405180910390fd5b805181602001fd5b63150b7a0260e01b7bffffffffffffffffffffffffffffffffffffffffffffffffffffffff1916817bffffffffffffffffffffffffffffffffffffffffffffffffffffffff191614915050611b3c565b600190505b949350505050565b6000808273ffffffffffffffffffffffffffffffffffffffff163b119050919050565b828054611b73906122f9565b90600052602060002090601f016020900481019282611b955760008555611bdc565b82601f10611bae57805160ff1916838001178555611bdc565b82800160010185558215611bdc579182015b82811115611bdb578251825591602001919060010190611bc0565b5b509050611be99190611bed565b5090565b5b80821115611c06576000816000905550600101611bee565b5090565b6000604051905090565b600080fd5b600080fd5b60007fffffffff0000000000000000000000000000000000000000000000000000000082169050919050565b611c5381611c1e565b8114611c5e57600080fd5b50565b600081359050611c7081611c4a565b92915050565b600060208284031215611c8c57611c8b611c14565b5b6000611c9a84828501611c61565b91505092915050565b60008115159050919050565b611cb881611ca3565b82525050565b6000602082019050611cd36000830184611caf565b92915050565b600081519050919050565b600082825260208201905092915050565b60005b83811015611d13578082015181840152602081019050611cf8565b83811115611d22576000848401525b50505050565b6000601f19601f8301169050919050565b6000611d4482611cd9565b611d4e8185611ce4565b9350611d5e818560208601611cf5565b611d6781611d28565b840191505092915050565b60006020820190508181036000830152611d8c8184611d39565b905092915050565b6000819050919050565b611da781611d94565b8114611db257600080fd5b50565b600081359050611dc481611d9e565b92915050565b600060208284031215611de057611ddf611c14565b5b6000611dee84828501611db5565b91505092915050565b600073ffffffffffffffffffffffffffffffffffffffff82169050919050565b6000611e2282611df7565b9050919050565b611e3281611e17565b82525050565b6000602082019050611e4d6000830184611e29565b92915050565b611e5c81611e17565b8114611e6757600080fd5b50565b600081359050611e7981611e53565b92915050565b60008060408385031215611e9657611e95611c14565b5b6000611ea485828601611e6a565b9250506020611eb585828601611db5565b9150509250929050565b600060208284031215611ed557611ed4611c14565b5b6000611ee384828501611e6a565b91505092915050565b600080600060608486031215611f0557611f04611c14565b5b6000611f1386828701611e6a565b9350506020611f2486828701611e6a565b9250506040611f3586828701611db5565b9150509250925092565b611f4881611d94565b82525050565b6000602082019050611f636000830184611f3f565b92915050565b611f7281611ca3565b8114611f7d57600080fd5b50565b600081359050611f8f81611f69565b92915050565b60008060408385031215611fac57611fab611c14565b5b6000611fba85828601611e6a565b9250506020611fcb85828601611f80565b9150509250929050565b600080fd5b600080fd5b7f4e487b7100000000000000000000000000000000000000000000000000000000600052604160045260246000fd5b61201782611d28565b810181811067ffffffffffffffff8211171561203657612035611fdf565b5b80604052505050565b6000612049611c0a565b9050612055828261200e565b919050565b600067ffffffffffffffff82111561207557612074611fdf565b5b61207e82611d28565b9050602081019050919050565b82818337600083830152505050565b60006120ad6120a88461205a565b61203f565b9050828152602081018484840111156120c9576120c8611fda565b5b6120d484828561208b565b509392505050565b600082601f8301126120f1576120f0611fd5565b5b813561210184826020860161209a565b91505092915050565b6000806000806080858703121561212457612123611c14565b5b600061213287828801611e6a565b945050602061214387828801611e6a565b935050604061215487828801611db5565b925050606085013567ffffffffffffffff81111561217557612174611c19565b5b612181878288016120dc565b91505092959194509250565b600067ffffffffffffffff8211156121a8576121a7611fdf565b5b6121b182611d28565b9050602081019050919050565b60006121d16121cc8461218d565b61203f565b9050828152602081018484840111156121ed576121ec611fda565b5b6121f884828561208b565b509392505050565b600082601f83011261221557612214611fd5565b5b81356122258482602086016121be565b91505092915050565b6000806040838503121561224557612244611c14565b5b600061225385828601611e6a565b925050602083013567ffffffffffffffff81111561227457612273611c19565b5b61228085828601612200565b9150509250929050565b600080604083850312156122a1576122a0611c14565b5b60006122af85828601611e6a565b92505060206122c085828601611e6a565b9150509250929050565b7f4e487b7100000000000000000000000000000000000000000000000000000000600052602260045260246000fd5b6000600282049050600182168061231157607f821691505b60208210811415612325576123246122ca565b5b50919050565b7f4552433732313a20617070726f76656420717565727920666f72206e6f6e657860008201527f697374656e7420746f6b656e0000000000000000000000000000000000000000602082015250565b6000612387602c83611ce4565b91506123928261232b565b604082019050919050565b600060208201905081810360008301526123b68161237a565b9050919050565b7f4552433732313a20617070726f76616c20746f2063757272656e74206f776e6560008201527f7200000000000000000000000000000000000000000000000000000000000000602082015250565b6000612419602183611ce4565b9150612424826123bd565b604082019050919050565b600060208201905081810360008301526124488161240c565b9050919050565b7f4552433732313a20617070726f76652063616c6c6572206973206e6f74206f7760008201527f6e6572206e6f7220617070726f76656420666f7220616c6c0000000000000000602082015250565b60006124ab603883611ce4565b91506124b68261244f565b604082019050919050565b600060208201905081810360008301526124da8161249e565b9050919050565b7f4f776e61626c653a2063616c6c6572206973206e6f7420746865206f776e6572600082015250565b6000612517602083611ce4565b9150612522826124e1565b602082019050919050565b600060208201905081810360008301526125468161250a565b9050919050565b7f4552433732313a207472616e736665722063616c6c6572206973206e6f74206f60008201527f776e6572206e6f7220617070726f766564000000000000000000000000000000602082015250565b60006125a9603183611ce4565b91506125b48261254d565b604082019050919050565b600060208201905081810360008301526125d88161259c565b9050919050565b7f4552433732313a206f776e657220717565727920666f72206e6f6e657869737460008201527f656e7420746f6b656e0000000000000000000000000000000000000000000000602082015250565b600061263b602983611ce4565b9150612646826125df565b604082019050919050565b6000602082019050818103600083015261266a8161262e565b9050919050565b7f4552433732313a2062616c616e636520717565727920666f7220746865207a6560008201527f726f206164647265737300000000000000000000000000000000000000000000602082015250565b60006126cd602a83611ce4565b91506126d882612671565b604082019050919050565b600060208201905081810360008301526126fc816126c0565b9050919050565b7f4552433732314d657461646174613a2055524920717565727920666f72206e6f60008201527f6e6578697374656e7420746f6b656e0000000000000000000000000000000000602082015250565b600061275f602f83611ce4565b915061276a82612703565b604082019050919050565b6000602082019050818103600083015261278e81612752565b9050919050565b7f436c6970707920506879676974616c2061646472657373206d7573742062652060008201527f7365740000000000000000000000000000000000000000000000000000000000602082015250565b60006127f1602383611ce4565b91506127fc82612795565b604082019050919050565b60006020820190508181036000830152612820816127e4565b9050919050565b7f4f6e6c7920506879676974616c20636f6e74726163742063616e206d696e742060008201527f4469676974616c204e4654730000000000000000000000000000000000000000602082015250565b6000612883602c83611ce4565b915061288e82612827565b604082019050919050565b600060208201905081810360008301526128b281612876565b9050919050565b7f4f776e61626c653a206e6577206f776e657220697320746865207a65726f206160008201527f6464726573730000000000000000000000000000000000000000000000000000602082015250565b6000612915602683611ce4565b9150612920826128b9565b604082019050919050565b6000602082019050818103600083015261294481612908565b9050919050565b7f4552433732313a206f70657261746f7220717565727920666f72206e6f6e657860008201527f697374656e7420746f6b656e0000000000000000000000000000000000000000602082015250565b60006129a7602c83611ce4565b91506129b28261294b565b604082019050919050565b600060208201905081810360008301526129d68161299a565b9050919050565b7f4552433732313a207472616e736665722066726f6d20696e636f72726563742060008201527f6f776e6572000000000000000000000000000000000000000000000000000000602082015250565b6000612a39602583611ce4565b9150612a44826129dd565b604082019050919050565b60006020820190508181036000830152612a6881612a2c565b9050919050565b7f4552433732313a207472616e7366657220746f20746865207a65726f2061646460008201527f7265737300000000000000000000000000000000000000000000000000000000602082015250565b6000612acb602483611ce4565b9150612ad682612a6f565b604082019050919050565b60006020820190508181036000830152612afa81612abe565b9050919050565b7f4e487b7100000000000000000000000000000000000000000000000000000000600052601160045260246000fd5b6000612b3b82611d94565b9150612b4683611d94565b925082821015612b5957612b58612b01565b5b828203905092915050565b6000612b6f82611d94565b9150612b7a83611d94565b9250827fffffffffffffffffffffffffffffffffffffffffffffffffffffffffffffffff03821115612baf57612bae612b01565b5b828201905092915050565b7f4552433732313a20617070726f766520746f2063616c6c657200000000000000600082015250565b6000612bf0601983611ce4565b9150612bfb82612bba565b602082019050919050565b60006020820190508181036000830152612c1f81612be3565b9050919050565b7f4552433732313a207472616e7366657220746f206e6f6e20455243373231526560008201527f63656976657220696d706c656d656e7465720000000000000000000000000000602082015250565b6000612c82603283611ce4565b9150612c8d82612c26565b604082019050919050565b60006020820190508181036000830152612cb181612c75565b9050919050565b7f4552433732313a206d696e7420746f20746865207a65726f2061646472657373600082015250565b6000612cee602083611ce4565b9150612cf982612cb8565b602082019050919050565b60006020820190508181036000830152612d1d81612ce1565b9050919050565b7f4552433732313a20746f6b656e20616c7265616479206d696e74656400000000600082015250565b6000612d5a601c83611ce4565b9150612d6582612d24565b602082019050919050565b60006020820190508181036000830152612d8981612d4d565b9050919050565b600081519050919050565b600082825260208201905092915050565b6000612db782612d90565b612dc18185612d9b565b9350612dd1818560208601611cf5565b612dda81611d28565b840191505092915050565b6000608082019050612dfa6000830187611e29565b612e076020830186611e29565b612e146040830185611f3f565b8181036060830152612e268184612dac565b905095945050505050565b600081519050612e4081611c4a565b92915050565b600060208284031215612e5c57612e5b611c14565b5b6000612e6a84828501612e31565b9150509291505056fea26469706673582212206b4b7146a61d71c79a10d17ee84d0ae28136e79644a42b05e81b11eac41bc67464736f6c63430008080033",
  "linkReferences": {},
  "deployedLinkReferences": {}
}