{
  "_format": "hh-sol-artifact-1",
  "contractName": "ClippyPhygital",
  "sourceName": "contracts/ClippyPhygital.sol",
  "abi": [
    {
      "inputs": [
        {
          "internalType": "address",
          "name": "_clippyDigitalAddr",
          "type": "address"
        }
      ],
      "stateMutability": "nonpayable",
      "type": "constructor"
    },
    {
      "anonymous": false,
      "inputs": [
        {
          "indexed": true,
          "internalType": "address",
          "name": "owner",
          "type": "address"
        },
        {
          "indexed": true,
          "internalType": "address",
          "name": "approved",
          "type": "address"
        },
        {
          "indexed": true,
          "internalType": "uint256",
          "name": "tokenId",
          "type": "uint256"
        }
      ],
      "name": "Approval",
      "type": "event"
    },
    {
      "anonymous": false,
      "inputs": [
        {
          "indexed": true,
          "internalType": "address",
          "name": "owner",
          "type": "address"
        },
        {
          "indexed": true,
          "internalType": "address",
          "name": "operator",
          "type": "address"
        },
        {
          "indexed": false,
          "internalType": "bool",
          "name": "approved",
          "type": "bool"
        }
      ],
      "name": "ApprovalForAll",
      "type": "event"
    },
    {
      "anonymous": false,
      "inputs": [
        {
          "indexed": true,
          "internalType": "address",
          "name": "previousOwner",
          "type": "address"
        },
        {
          "indexed": true,
          "internalType": "address",
          "name": "newOwner",
          "type": "address"
        }
      ],
      "name": "OwnershipTransferred",
      "type": "event"
    },
    {
      "anonymous": false,
      "inputs": [
        {
          "indexed": true,
          "internalType": "address",
          "name": "from",
          "type": "address"
        },
        {
          "indexed": true,
          "internalType": "address",
          "name": "to",
          "type": "address"
        },
        {
          "indexed": true,
          "internalType": "uint256",
          "name": "tokenId",
          "type": "uint256"
        }
      ],
      "name": "Transfer",
      "type": "event"
    },
    {
      "inputs": [
        {
          "internalType": "address",
          "name": "to",
          "type": "address"
        },
        {
          "internalType": "uint256",
          "name": "tokenId",
          "type": "uint256"
        }
      ],
      "name": "approve",
      "outputs": [],
      "stateMutability": "nonpayable",
      "type": "function"
    },
    {
      "inputs": [
        {
          "internalType": "address",
          "name": "owner",
          "type": "address"
        }
      ],
      "name": "balanceOf",
      "outputs": [
        {
          "internalType": "uint256",
          "name": "",
          "type": "uint256"
        }
      ],
      "stateMutability": "view",
      "type": "function"
    },
    {
      "inputs": [
        {
          "internalType": "uint256",
          "name": "tokenId",
          "type": "uint256"
        }
      ],
      "name": "getApproved",
      "outputs": [
        {
          "internalType": "address",
          "name": "",
          "type": "address"
        }
      ],
      "stateMutability": "view",
      "type": "function"
    },
    {
      "inputs": [
        {
          "internalType": "address",
          "name": "owner",
          "type": "address"
        },
        {
          "internalType": "address",
          "name": "operator",
          "type": "address"
        }
      ],
      "name": "isApprovedForAll",
      "outputs": [
        {
          "internalType": "bool",
          "name": "",
          "type": "bool"
        }
      ],
      "stateMutability": "view",
      "type": "function"
    },
    {
      "inputs": [
        {
          "internalType": "address",
          "name": "recipient",
          "type": "address"
        },
        {
          "internalType": "string",
          "name": "uri",
          "type": "string"
        }
      ],
      "name": "mint",
      "outputs": [
        {
          "internalType": "uint256",
          "name": "",
          "type": "uint256"
        }
      ],
      "stateMutability": "payable",
      "type": "function"
    },
    {
      "inputs": [],
      "name": "name",
      "outputs": [
        {
          "internalType": "string",
          "name": "",
          "type": "string"
        }
      ],
      "stateMutability": "view",
      "type": "function"
    },
    {
      "inputs": [],
      "name": "owner",
      "outputs": [
        {
          "internalType": "address",
          "name": "",
          "type": "address"
        }
      ],
      "stateMutability": "view",
      "type": "function"
    },
    {
      "inputs": [
        {
          "internalType": "uint256",
          "name": "tokenId",
          "type": "uint256"
        }
      ],
      "name": "ownerOf",
      "outputs": [
        {
          "internalType": "address",
          "name": "",
          "type": "address"
        }
      ],
      "stateMutability": "view",
      "type": "function"
    },
    {
      "inputs": [],
      "name": "renounceOwnership",
      "outputs": [],
      "stateMutability": "nonpayable",
      "type": "function"
    },
    {
      "inputs": [
        {
          "internalType": "address",
          "name": "from",
          "type": "address"
        },
        {
          "internalType": "address",
          "name": "to",
          "type": "address"
        },
        {
          "internalType": "uint256",
          "name": "tokenId",
          "type": "uint256"
        }
      ],
      "name": "safeTransferFrom",
      "outputs": [],
      "stateMutability": "nonpayable",
      "type": "function"
    },
    {
      "inputs": [
        {
          "internalType": "address",
          "name": "from",
          "type": "address"
        },
        {
          "internalType": "address",
          "name": "to",
          "type": "address"
        },
        {
          "internalType": "uint256",
          "name": "tokenId",
          "type": "uint256"
        },
        {
          "internalType": "bytes",
          "name": "_data",
          "type": "bytes"
        }
      ],
      "name": "safeTransferFrom",
      "outputs": [],
      "stateMutability": "nonpayable",
      "type": "function"
    },
    {
      "inputs": [
        {
          "internalType": "address",
          "name": "operator",
          "type": "address"
        },
        {
          "internalType": "bool",
          "name": "approved",
          "type": "bool"
        }
      ],
      "name": "setApprovalForAll",
      "outputs": [],
      "stateMutability": "nonpayable",
      "type": "function"
    },
    {
      "inputs": [
        {
          "internalType": "bytes4",
          "name": "interfaceId",
          "type": "bytes4"
        }
      ],
      "name": "supportsInterface",
      "outputs": [
        {
          "internalType": "bool",
          "name": "",
          "type": "bool"
        }
      ],
      "stateMutability": "view",
      "type": "function"
    },
    {
      "inputs": [],
      "name": "symbol",
      "outputs": [
        {
          "internalType": "string",
          "name": "",
          "type": "string"
        }
      ],
      "stateMutability": "view",
      "type": "function"
    },
    {
      "inputs": [
        {
          "internalType": "uint256",
          "name": "tokenId",
          "type": "uint256"
        }
      ],
      "name": "tokenURI",
      "outputs": [
        {
          "internalType": "string",
          "name": "",
          "type": "string"
        }
      ],
      "stateMutability": "view",
      "type": "function"
    },
    {
      "inputs": [
        {
          "internalType": "address",
          "name": "from",
          "type": "address"
        },
        {
          "internalType": "address",
          "name": "to",
          "type": "address"
        },
        {
          "internalType": "uint256",
          "name": "tokenId",
          "type": "uint256"
        }
      ],
      "name": "transferFrom",
      "outputs": [],
      "stateMutability": "nonpayable",
      "type": "function"
    },
    {
      "inputs": [
        {
          "internalType": "address",
          "name": "newOwner",
          "type": "address"
        }
      ],
      "name": "transferOwnership",
      "outputs": [],
      "stateMutability": "nonpayable",
      "type": "function"
    }
  ],
  "bytecode": "0x60806040523480156200001157600080fd5b50604051620032c1380380620032c1833981810160405281019062000037919062000327565b6040518060400160405280600e81526020017f436c69707079506879676974616c0000000000000000000000000000000000008152506040518060400160405280600581526020017f434c4950520000000000000000000000000000000000000000000000000000008152508160009080519060200190620000bb9291906200020d565b508060019080519060200190620000d49291906200020d565b505050620000f7620000eb6200013f60201b60201c565b6200014760201b60201c565b80600960006101000a81548173ffffffffffffffffffffffffffffffffffffffff021916908373ffffffffffffffffffffffffffffffffffffffff16021790555050620003be565b600033905090565b6000600660009054906101000a900473ffffffffffffffffffffffffffffffffffffffff16905081600660006101000a81548173ffffffffffffffffffffffffffffffffffffffff021916908373ffffffffffffffffffffffffffffffffffffffff1602179055508173ffffffffffffffffffffffffffffffffffffffff168173ffffffffffffffffffffffffffffffffffffffff167f8be0079c531659141344cd1fd0a4f28419497f9722a3daafe3b4186f6b6457e060405160405180910390a35050565b8280546200021b9062000388565b90600052602060002090601f0160209004810192826200023f57600085556200028b565b82601f106200025a57805160ff19168380011785556200028b565b828001600101855582156200028b579182015b828111156200028a5782518255916020019190600101906200026d565b5b5090506200029a91906200029e565b5090565b5b80821115620002b95760008160009055506001016200029f565b5090565b600080fd5b600073ffffffffffffffffffffffffffffffffffffffff82169050919050565b6000620002ef82620002c2565b9050919050565b6200030181620002e2565b81146200030d57600080fd5b50565b6000815190506200032181620002f6565b92915050565b60006020828403121562000340576200033f620002bd565b5b6000620003508482850162000310565b91505092915050565b7f4e487b7100000000000000000000000000000000000000000000000000000000600052602260045260246000fd5b60006002820490506001821680620003a157607f821691505b60208210811415620003b857620003b762000359565b5b50919050565b612ef380620003ce6000396000f3fe6080604052600436106100fe5760003560e01c8063715018a611610095578063b88d4fde11610064578063b88d4fde14610333578063c87b56dd1461035c578063d0def52114610399578063e985e9c5146103c9578063f2fde38b14610406576100fe565b8063715018a61461029d5780638da5cb5b146102b457806395d89b41146102df578063a22cb4651461030a576100fe565b806323b872dd116100d157806323b872dd146101d157806342842e0e146101fa5780636352211e1461022357806370a0823114610260576100fe565b806301ffc9a71461010357806306fdde0314610140578063081812fc1461016b578063095ea7b3146101a8575b600080fd5b34801561010f57600080fd5b5061012a60048036038101906101259190611b98565b61042f565b6040516101379190611be0565b60405180910390f35b34801561014c57600080fd5b50610155610511565b6040516101629190611c94565b60405180910390f35b34801561017757600080fd5b50610192600480360381019061018d9190611cec565b6105a3565b60405161019f9190611d5a565b60405180910390f35b3480156101b457600080fd5b506101cf60048036038101906101ca9190611da1565b610628565b005b3480156101dd57600080fd5b506101f860048036038101906101f39190611de1565b610740565b005b34801561020657600080fd5b50610221600480360381019061021c9190611de1565b6107a0565b005b34801561022f57600080fd5b5061024a60048036038101906102459190611cec565b6107c0565b6040516102579190611d5a565b60405180910390f35b34801561026c57600080fd5b5061028760048036038101906102829190611e34565b610872565b6040516102949190611e70565b60405180910390f35b3480156102a957600080fd5b506102b261092a565b005b3480156102c057600080fd5b506102c96109b2565b6040516102d69190611d5a565b60405180910390f35b3480156102eb57600080fd5b506102f46109dc565b6040516103019190611c94565b60405180910390f35b34801561031657600080fd5b50610331600480360381019061032c9190611eb7565b610a6e565b005b34801561033f57600080fd5b5061035a6004803603810190610355919061202c565b610a84565b005b34801561036857600080fd5b50610383600480360381019061037e9190611cec565b610ae6565b6040516103909190611c94565b60405180910390f35b6103b360048036038101906103ae9190612150565b610bd9565b6040516103c09190611e70565b60405180910390f35b3480156103d557600080fd5b506103f060048036038101906103eb91906121ac565b610da4565b6040516103fd9190611be0565b60405180910390f35b34801561041257600080fd5b5061042d60048036038101906104289190611e34565b610e38565b005b60007f80ac58cd000000000000000000000000000000000000000000000000000000007bffffffffffffffffffffffffffffffffffffffffffffffffffffffff1916827bffffffffffffffffffffffffffffffffffffffffffffffffffffffff191614806104fa57507f5b5e139f000000000000000000000000000000000000000000000000000000007bffffffffffffffffffffffffffffffffffffffffffffffffffffffff1916827bffffffffffffffffffffffffffffffffffffffffffffffffffffffff1916145b8061050a575061050982610f30565b5b9050919050565b6060600080546105209061221b565b80601f016020809104026020016040519081016040528092919081815260200182805461054c9061221b565b80156105995780601f1061056e57610100808354040283529160200191610599565b820191906000526020600020905b81548152906001019060200180831161057c57829003601f168201915b5050505050905090565b60006105ae82610f9a565b6105ed576040517f08c379a00000000000000000000000000000000000000000000000000000000081526004016105e4906122bf565b60405180910390fd5b6004600083815260200190815260200160002060009054906101000a900473ffffffffffffffffffffffffffffffffffffffff169050919050565b6000610633826107c0565b90508073ffffffffffffffffffffffffffffffffffffffff168373ffffffffffffffffffffffffffffffffffffffff1614156106a4576040517f08c379a000000000000000000000000000000000000000000000000000000000815260040161069b90612351565b60405180910390fd5b8073ffffffffffffffffffffffffffffffffffffffff166106c3611006565b73ffffffffffffffffffffffffffffffffffffffff1614806106f257506106f1816106ec611006565b610da4565b5b610731576040517f08c379a0000000000000000000000000000000000000000000000000000000008152600401610728906123e3565b60405180910390fd5b61073b838361100e565b505050565b61075161074b611006565b826110c7565b610790576040517f08c379a000000000000000000000000000000000000000000000000000000000815260040161078790612475565b60405180910390fd5b61079b8383836111a5565b505050565b6107bb83838360405180602001604052806000815250610a84565b505050565b6000806002600084815260200190815260200160002060009054906101000a900473ffffffffffffffffffffffffffffffffffffffff169050600073ffffffffffffffffffffffffffffffffffffffff168173ffffffffffffffffffffffffffffffffffffffff161415610869576040517f08c379a000000000000000000000000000000000000000000000000000000000815260040161086090612507565b60405180910390fd5b80915050919050565b60008073ffffffffffffffffffffffffffffffffffffffff168273ffffffffffffffffffffffffffffffffffffffff1614156108e3576040517f08c379a00000000000000000000000000000000000000000000000000000000081526004016108da90612599565b60405180910390fd5b600360008373ffffffffffffffffffffffffffffffffffffffff1673ffffffffffffffffffffffffffffffffffffffff168152602001908152602001600020549050919050565b610932611006565b73ffffffffffffffffffffffffffffffffffffffff166109506109b2565b73ffffffffffffffffffffffffffffffffffffffff16146109a6576040517f08c379a000000000000000000000000000000000000000000000000000000000815260040161099d90612605565b60405180910390fd5b6109b0600061140c565b565b6000600660009054906101000a900473ffffffffffffffffffffffffffffffffffffffff16905090565b6060600180546109eb9061221b565b80601f0160208091040260200160405190810160405280929190818152602001828054610a179061221b565b8015610a645780601f10610a3957610100808354040283529160200191610a64565b820191906000526020600020905b815481529060010190602001808311610a4757829003601f168201915b5050505050905090565b610a80610a79611006565b83836114d2565b5050565b610a95610a8f611006565b836110c7565b610ad4576040517f08c379a0000000000000000000000000000000000000000000000000000000008152600401610acb90612475565b60405180910390fd5b610ae08484848461163f565b50505050565b6060610af182610f9a565b610b30576040517f08c379a0000000000000000000000000000000000000000000000000000000008152600401610b2790612697565b60405180910390fd5b6000600860008481526020019081526020016000208054610b509061221b565b80601f0160208091040260200160405190810160405280929190818152602001828054610b7c9061221b565b8015610bc95780601f10610b9e57610100808354040283529160200191610bc9565b820191906000526020600020905b815481529060010190602001808311610bac57829003601f168201915b5050505050905080915050919050565b600067016345785d8a0000341015610c26576040517f08c379a0000000000000000000000000000000000000000000000000000000008152600401610c1d90612703565b60405180910390fd5b611068610c33600761169b565b1115610c74576040517f08c379a0000000000000000000000000000000000000000000000000000000008152600401610c6b90612795565b60405180910390fd5b6005610c7f33610872565b1115610cc0576040517f08c379a0000000000000000000000000000000000000000000000000000000008152600401610cb790612827565b60405180910390fd5b610cca60076116a9565b6000610cd6600761169b565b9050610ce284826116bf565b610cec8184611899565b600960009054906101000a900473ffffffffffffffffffffffffffffffffffffffff1673ffffffffffffffffffffffffffffffffffffffff1663d0def521856040518263ffffffff1660e01b8152600401610d479190612893565b602060405180830381600087803b158015610d6157600080fd5b505af1158015610d75573d6000803e3d6000fd5b505050506040513d601f19601f82011682018060405250810190610d9991906128d6565b508091505092915050565b6000600560008473ffffffffffffffffffffffffffffffffffffffff1673ffffffffffffffffffffffffffffffffffffffff16815260200190815260200160002060008373ffffffffffffffffffffffffffffffffffffffff1673ffffffffffffffffffffffffffffffffffffffff16815260200190815260200160002060009054906101000a900460ff16905092915050565b610e40611006565b73ffffffffffffffffffffffffffffffffffffffff16610e5e6109b2565b73ffffffffffffffffffffffffffffffffffffffff1614610eb4576040517f08c379a0000000000000000000000000000000000000000000000000000000008152600401610eab90612605565b60405180910390fd5b600073ffffffffffffffffffffffffffffffffffffffff168173ffffffffffffffffffffffffffffffffffffffff161415610f24576040517f08c379a0000000000000000000000000000000000000000000000000000000008152600401610f1b90612975565b60405180910390fd5b610f2d8161140c565b50565b60007f01ffc9a7000000000000000000000000000000000000000000000000000000007bffffffffffffffffffffffffffffffffffffffffffffffffffffffff1916827bffffffffffffffffffffffffffffffffffffffffffffffffffffffff1916149050919050565b60008073ffffffffffffffffffffffffffffffffffffffff166002600084815260200190815260200160002060009054906101000a900473ffffffffffffffffffffffffffffffffffffffff1673ffffffffffffffffffffffffffffffffffffffff1614159050919050565b600033905090565b816004600083815260200190815260200160002060006101000a81548173ffffffffffffffffffffffffffffffffffffffff021916908373ffffffffffffffffffffffffffffffffffffffff160217905550808273ffffffffffffffffffffffffffffffffffffffff16611081836107c0565b73ffffffffffffffffffffffffffffffffffffffff167f8c5be1e5ebec7d5bd14f71427d1e84f3dd0314c0f7b2291e5b200ac8c7c3b92560405160405180910390a45050565b60006110d282610f9a565b611111576040517f08c379a000000000000000000000000000000000000000000000000000000000815260040161110890612a07565b60405180910390fd5b600061111c836107c0565b90508073ffffffffffffffffffffffffffffffffffffffff168473ffffffffffffffffffffffffffffffffffffffff16148061118b57508373ffffffffffffffffffffffffffffffffffffffff16611173846105a3565b73ffffffffffffffffffffffffffffffffffffffff16145b8061119c575061119b8185610da4565b5b91505092915050565b8273ffffffffffffffffffffffffffffffffffffffff166111c5826107c0565b73ffffffffffffffffffffffffffffffffffffffff161461121b576040517f08c379a000000000000000000000000000000000000000000000000000000000815260040161121290612a99565b60405180910390fd5b600073ffffffffffffffffffffffffffffffffffffffff168273ffffffffffffffffffffffffffffffffffffffff16141561128b576040517f08c379a000000000000000000000000000000000000000000000000000000000815260040161128290612b2b565b60405180910390fd5b6112968383836118c5565b6112a160008261100e565b6001600360008573ffffffffffffffffffffffffffffffffffffffff1673ffffffffffffffffffffffffffffffffffffffff16815260200190815260200160002060008282546112f19190612b7a565b925050819055506001600360008473ffffffffffffffffffffffffffffffffffffffff1673ffffffffffffffffffffffffffffffffffffffff16815260200190815260200160002060008282546113489190612bae565b92505081905550816002600083815260200190815260200160002060006101000a81548173ffffffffffffffffffffffffffffffffffffffff021916908373ffffffffffffffffffffffffffffffffffffffff160217905550808273ffffffffffffffffffffffffffffffffffffffff168473ffffffffffffffffffffffffffffffffffffffff167fddf252ad1be2c89b69c2b068fc378daa952ba7f163c4a11628f55a4df523b3ef60405160405180910390a46114078383836118ca565b505050565b6000600660009054906101000a900473ffffffffffffffffffffffffffffffffffffffff16905081600660006101000a81548173ffffffffffffffffffffffffffffffffffffffff021916908373ffffffffffffffffffffffffffffffffffffffff1602179055508173ffffffffffffffffffffffffffffffffffffffff168173ffffffffffffffffffffffffffffffffffffffff167f8be0079c531659141344cd1fd0a4f28419497f9722a3daafe3b4186f6b6457e060405160405180910390a35050565b8173ffffffffffffffffffffffffffffffffffffffff168373ffffffffffffffffffffffffffffffffffffffff161415611541576040517f08c379a000000000000000000000000000000000000000000000000000000000815260040161153890612c50565b60405180910390fd5b80600560008573ffffffffffffffffffffffffffffffffffffffff1673ffffffffffffffffffffffffffffffffffffffff16815260200190815260200160002060008473ffffffffffffffffffffffffffffffffffffffff1673ffffffffffffffffffffffffffffffffffffffff16815260200190815260200160002060006101000a81548160ff0219169083151502179055508173ffffffffffffffffffffffffffffffffffffffff168373ffffffffffffffffffffffffffffffffffffffff167f17307eab39ab6107e8899845ad3d59bd9653f200f220920489ca2b5937696c31836040516116329190611be0565b60405180910390a3505050565b61164a8484846111a5565b611656848484846118cf565b611695576040517f08c379a000000000000000000000000000000000000000000000000000000000815260040161168c90612ce2565b60405180910390fd5b50505050565b600081600001549050919050565b6001816000016000828254019250508190555050565b600073ffffffffffffffffffffffffffffffffffffffff168273ffffffffffffffffffffffffffffffffffffffff16141561172f576040517f08c379a000000000000000000000000000000000000000000000000000000000815260040161172690612d4e565b60405180910390fd5b61173881610f9a565b15611778576040517f08c379a000000000000000000000000000000000000000000000000000000000815260040161176f90612dba565b60405180910390fd5b611784600083836118c5565b6001600360008473ffffffffffffffffffffffffffffffffffffffff1673ffffffffffffffffffffffffffffffffffffffff16815260200190815260200160002060008282546117d49190612bae565b92505081905550816002600083815260200190815260200160002060006101000a81548173ffffffffffffffffffffffffffffffffffffffff021916908373ffffffffffffffffffffffffffffffffffffffff160217905550808273ffffffffffffffffffffffffffffffffffffffff16600073ffffffffffffffffffffffffffffffffffffffff167fddf252ad1be2c89b69c2b068fc378daa952ba7f163c4a11628f55a4df523b3ef60405160405180910390a4611895600083836118ca565b5050565b806008600084815260200190815260200160002090805190602001906118c0929190611a89565b505050565b505050565b505050565b60006118f08473ffffffffffffffffffffffffffffffffffffffff16611a66565b15611a59578373ffffffffffffffffffffffffffffffffffffffff1663150b7a02611919611006565b8786866040518563ffffffff1660e01b815260040161193b9493929190612e2f565b602060405180830381600087803b15801561195557600080fd5b505af192505050801561198657506040513d601f19601f820116820180604052508101906119839190612e90565b60015b611a09573d80600081146119b6576040519150601f19603f3d011682016040523d82523d6000602084013e6119bb565b606091505b50600081511415611a01576040517f08c379a00000000000000000000000000000000000000000000000000000000081526004016119f890612ce2565b60405180910390fd5b805181602001fd5b63150b7a0260e01b7bffffffffffffffffffffffffffffffffffffffffffffffffffffffff1916817bffffffffffffffffffffffffffffffffffffffffffffffffffffffff191614915050611a5e565b600190505b949350505050565b6000808273ffffffffffffffffffffffffffffffffffffffff163b119050919050565b828054611a959061221b565b90600052602060002090601f016020900481019282611ab75760008555611afe565b82601f10611ad057805160ff1916838001178555611afe565b82800160010185558215611afe579182015b82811115611afd578251825591602001919060010190611ae2565b5b509050611b0b9190611b0f565b5090565b5b80821115611b28576000816000905550600101611b10565b5090565b6000604051905090565b600080fd5b600080fd5b60007fffffffff0000000000000000000000000000000000000000000000000000000082169050919050565b611b7581611b40565b8114611b8057600080fd5b50565b600081359050611b9281611b6c565b92915050565b600060208284031215611bae57611bad611b36565b5b6000611bbc84828501611b83565b91505092915050565b60008115159050919050565b611bda81611bc5565b82525050565b6000602082019050611bf56000830184611bd1565b92915050565b600081519050919050565b600082825260208201905092915050565b60005b83811015611c35578082015181840152602081019050611c1a565b83811115611c44576000848401525b50505050565b6000601f19601f8301169050919050565b6000611c6682611bfb565b611c708185611c06565b9350611c80818560208601611c17565b611c8981611c4a565b840191505092915050565b60006020820190508181036000830152611cae8184611c5b565b905092915050565b6000819050919050565b611cc981611cb6565b8114611cd457600080fd5b50565b600081359050611ce681611cc0565b92915050565b600060208284031215611d0257611d01611b36565b5b6000611d1084828501611cd7565b91505092915050565b600073ffffffffffffffffffffffffffffffffffffffff82169050919050565b6000611d4482611d19565b9050919050565b611d5481611d39565b82525050565b6000602082019050611d6f6000830184611d4b565b92915050565b611d7e81611d39565b8114611d8957600080fd5b50565b600081359050611d9b81611d75565b92915050565b60008060408385031215611db857611db7611b36565b5b6000611dc685828601611d8c565b9250506020611dd785828601611cd7565b9150509250929050565b600080600060608486031215611dfa57611df9611b36565b5b6000611e0886828701611d8c565b9350506020611e1986828701611d8c565b9250506040611e2a86828701611cd7565b9150509250925092565b600060208284031215611e4a57611e49611b36565b5b6000611e5884828501611d8c565b91505092915050565b611e6a81611cb6565b82525050565b6000602082019050611e856000830184611e61565b92915050565b611e9481611bc5565b8114611e9f57600080fd5b50565b600081359050611eb181611e8b565b92915050565b60008060408385031215611ece57611ecd611b36565b5b6000611edc85828601611d8c565b9250506020611eed85828601611ea2565b9150509250929050565b600080fd5b600080fd5b7f4e487b7100000000000000000000000000000000000000000000000000000000600052604160045260246000fd5b611f3982611c4a565b810181811067ffffffffffffffff82111715611f5857611f57611f01565b5b80604052505050565b6000611f6b611b2c565b9050611f778282611f30565b919050565b600067ffffffffffffffff821115611f9757611f96611f01565b5b611fa082611c4a565b9050602081019050919050565b82818337600083830152505050565b6000611fcf611fca84611f7c565b611f61565b905082815260208101848484011115611feb57611fea611efc565b5b611ff6848285611fad565b509392505050565b600082601f83011261201357612012611ef7565b5b8135612023848260208601611fbc565b91505092915050565b6000806000806080858703121561204657612045611b36565b5b600061205487828801611d8c565b945050602061206587828801611d8c565b935050604061207687828801611cd7565b925050606085013567ffffffffffffffff81111561209757612096611b3b565b5b6120a387828801611ffe565b91505092959194509250565b600067ffffffffffffffff8211156120ca576120c9611f01565b5b6120d382611c4a565b9050602081019050919050565b60006120f36120ee846120af565b611f61565b90508281526020810184848401111561210f5761210e611efc565b5b61211a848285611fad565b509392505050565b600082601f83011261213757612136611ef7565b5b81356121478482602086016120e0565b91505092915050565b6000806040838503121561216757612166611b36565b5b600061217585828601611d8c565b925050602083013567ffffffffffffffff81111561219657612195611b3b565b5b6121a285828601612122565b9150509250929050565b600080604083850312156121c3576121c2611b36565b5b60006121d185828601611d8c565b92505060206121e285828601611d8c565b9150509250929050565b7f4e487b7100000000000000000000000000000000000000000000000000000000600052602260045260246000fd5b6000600282049050600182168061223357607f821691505b60208210811415612247576122466121ec565b5b50919050565b7f4552433732313a20617070726f76656420717565727920666f72206e6f6e657860008201527f697374656e7420746f6b656e0000000000000000000000000000000000000000602082015250565b60006122a9602c83611c06565b91506122b48261224d565b604082019050919050565b600060208201905081810360008301526122d88161229c565b9050919050565b7f4552433732313a20617070726f76616c20746f2063757272656e74206f776e6560008201527f7200000000000000000000000000000000000000000000000000000000000000602082015250565b600061233b602183611c06565b9150612346826122df565b604082019050919050565b6000602082019050818103600083015261236a8161232e565b9050919050565b7f4552433732313a20617070726f76652063616c6c6572206973206e6f74206f7760008201527f6e6572206e6f7220617070726f76656420666f7220616c6c0000000000000000602082015250565b60006123cd603883611c06565b91506123d882612371565b604082019050919050565b600060208201905081810360008301526123fc816123c0565b9050919050565b7f4552433732313a207472616e736665722063616c6c6572206973206e6f74206f60008201527f776e6572206e6f7220617070726f766564000000000000000000000000000000602082015250565b600061245f603183611c06565b915061246a82612403565b604082019050919050565b6000602082019050818103600083015261248e81612452565b9050919050565b7f4552433732313a206f776e657220717565727920666f72206e6f6e657869737460008201527f656e7420746f6b656e0000000000000000000000000000000000000000000000602082015250565b60006124f1602983611c06565b91506124fc82612495565b604082019050919050565b60006020820190508181036000830152612520816124e4565b9050919050565b7f4552433732313a2062616c616e636520717565727920666f7220746865207a6560008201527f726f206164647265737300000000000000000000000000000000000000000000602082015250565b6000612583602a83611c06565b915061258e82612527565b604082019050919050565b600060208201905081810360008301526125b281612576565b9050919050565b7f4f776e61626c653a2063616c6c6572206973206e6f7420746865206f776e6572600082015250565b60006125ef602083611c06565b91506125fa826125b9565b602082019050919050565b6000602082019050818103600083015261261e816125e2565b9050919050565b7f4552433732314d657461646174613a2055524920717565727920666f72206e6f60008201527f6e6578697374656e7420746f6b656e0000000000000000000000000000000000602082015250565b6000612681602f83611c06565b915061268c82612625565b604082019050919050565b600060208201905081810360008301526126b081612674565b9050919050565b7f302e314520726571756972656420746f206d696e740000000000000000000000600082015250565b60006126ed601583611c06565b91506126f8826126b7565b602082019050919050565b6000602082019050818103600083015261271c816126e0565b9050919050565b7f4f6e6c792034323030206f6620746869732070696563652063616e206265206360008201527f7265617465640000000000000000000000000000000000000000000000000000602082015250565b600061277f602683611c06565b915061278a82612723565b604082019050919050565b600060208201905081810360008301526127ae81612772565b9050919050565b7f596f752063616e206f6e6c79206d696e742061206d6178206f662035206f662060008201527f7468697320706965636500000000000000000000000000000000000000000000602082015250565b6000612811602a83611c06565b915061281c826127b5565b604082019050919050565b6000602082019050818103600083015261284081612804565b9050919050565b7f6469676974616c55726900000000000000000000000000000000000000000000600082015250565b600061287d600a83611c06565b915061288882612847565b602082019050919050565b60006040820190506128a86000830184611d4b565b81810360208301526128b981612870565b905092915050565b6000815190506128d081611cc0565b92915050565b6000602082840312156128ec576128eb611b36565b5b60006128fa848285016128c1565b91505092915050565b7f4f776e61626c653a206e6577206f776e657220697320746865207a65726f206160008201527f6464726573730000000000000000000000000000000000000000000000000000602082015250565b600061295f602683611c06565b915061296a82612903565b604082019050919050565b6000602082019050818103600083015261298e81612952565b9050919050565b7f4552433732313a206f70657261746f7220717565727920666f72206e6f6e657860008201527f697374656e7420746f6b656e0000000000000000000000000000000000000000602082015250565b60006129f1602c83611c06565b91506129fc82612995565b604082019050919050565b60006020820190508181036000830152612a20816129e4565b9050919050565b7f4552433732313a207472616e736665722066726f6d20696e636f72726563742060008201527f6f776e6572000000000000000000000000000000000000000000000000000000602082015250565b6000612a83602583611c06565b9150612a8e82612a27565b604082019050919050565b60006020820190508181036000830152612ab281612a76565b9050919050565b7f4552433732313a207472616e7366657220746f20746865207a65726f2061646460008201527f7265737300000000000000000000000000000000000000000000000000000000602082015250565b6000612b15602483611c06565b9150612b2082612ab9565b604082019050919050565b60006020820190508181036000830152612b4481612b08565b9050919050565b7f4e487b7100000000000000000000000000000000000000000000000000000000600052601160045260246000fd5b6000612b8582611cb6565b9150612b9083611cb6565b925082821015612ba357612ba2612b4b565b5b828203905092915050565b6000612bb982611cb6565b9150612bc483611cb6565b9250827fffffffffffffffffffffffffffffffffffffffffffffffffffffffffffffffff03821115612bf957612bf8612b4b565b5b828201905092915050565b7f4552433732313a20617070726f766520746f2063616c6c657200000000000000600082015250565b6000612c3a601983611c06565b9150612c4582612c04565b602082019050919050565b60006020820190508181036000830152612c6981612c2d565b9050919050565b7f4552433732313a207472616e7366657220746f206e6f6e20455243373231526560008201527f63656976657220696d706c656d656e7465720000000000000000000000000000602082015250565b6000612ccc603283611c06565b9150612cd782612c70565b604082019050919050565b60006020820190508181036000830152612cfb81612cbf565b9050919050565b7f4552433732313a206d696e7420746f20746865207a65726f2061646472657373600082015250565b6000612d38602083611c06565b9150612d4382612d02565b602082019050919050565b60006020820190508181036000830152612d6781612d2b565b9050919050565b7f4552433732313a20746f6b656e20616c7265616479206d696e74656400000000600082015250565b6000612da4601c83611c06565b9150612daf82612d6e565b602082019050919050565b60006020820190508181036000830152612dd381612d97565b9050919050565b600081519050919050565b600082825260208201905092915050565b6000612e0182612dda565b612e0b8185612de5565b9350612e1b818560208601611c17565b612e2481611c4a565b840191505092915050565b6000608082019050612e446000830187611d4b565b612e516020830186611d4b565b612e5e6040830185611e61565b8181036060830152612e708184612df6565b905095945050505050565b600081519050612e8a81611b6c565b92915050565b600060208284031215612ea657612ea5611b36565b5b6000612eb484828501612e7b565b9150509291505056fea2646970667358221220831674c8b6675eeb93bb1d6c7b8a45f5b95746b4644039c5196dacf714bc869b64736f6c63430008080033",
  "linkReferences": {},
  "deployedLinkReferences": {}
}