{
  "_format": "hh-sol-artifact-1",
  "contractName": "ClippyDigital",
  "sourceName": "contracts/ClippyDigital.sol",
  "abi": [
    {
      "inputs": [],
      "stateMutability": "nonpayable",
      "type": "constructor"
    },
    {
      "anonymous": false,
      "inputs": [
        {
          "indexed": true,
          "internalType": "address",
          "name": "owner",
          "type": "address"
        },
        {
          "indexed": true,
          "internalType": "address",
          "name": "approved",
          "type": "address"
        },
        {
          "indexed": true,
          "internalType": "uint256",
          "name": "tokenId",
          "type": "uint256"
        }
      ],
      "name": "Approval",
      "type": "event"
    },
    {
      "anonymous": false,
      "inputs": [
        {
          "indexed": true,
          "internalType": "address",
          "name": "owner",
          "type": "address"
        },
        {
          "indexed": true,
          "internalType": "address",
          "name": "operator",
          "type": "address"
        },
        {
          "indexed": false,
          "internalType": "bool",
          "name": "approved",
          "type": "bool"
        }
      ],
      "name": "ApprovalForAll",
      "type": "event"
    },
    {
      "anonymous": false,
      "inputs": [
        {
          "indexed": true,
          "internalType": "address",
          "name": "previousOwner",
          "type": "address"
        },
        {
          "indexed": true,
          "internalType": "address",
          "name": "newOwner",
          "type": "address"
        }
      ],
      "name": "OwnershipTransferred",
      "type": "event"
    },
    {
      "anonymous": false,
      "inputs": [
        {
          "indexed": true,
          "internalType": "address",
          "name": "from",
          "type": "address"
        },
        {
          "indexed": true,
          "internalType": "address",
          "name": "to",
          "type": "address"
        },
        {
          "indexed": true,
          "internalType": "uint256",
          "name": "tokenId",
          "type": "uint256"
        }
      ],
      "name": "Transfer",
      "type": "event"
    },
    {
      "inputs": [
        {
          "internalType": "address",
          "name": "to",
          "type": "address"
        },
        {
          "internalType": "uint256",
          "name": "tokenId",
          "type": "uint256"
        }
      ],
      "name": "approve",
      "outputs": [],
      "stateMutability": "nonpayable",
      "type": "function"
    },
    {
      "inputs": [
        {
          "internalType": "address",
          "name": "owner",
          "type": "address"
        }
      ],
      "name": "balanceOf",
      "outputs": [
        {
          "internalType": "uint256",
          "name": "",
          "type": "uint256"
        }
      ],
      "stateMutability": "view",
      "type": "function"
    },
    {
      "inputs": [
        {
          "internalType": "uint256",
          "name": "tokenId",
          "type": "uint256"
        }
      ],
      "name": "burn",
      "outputs": [],
      "stateMutability": "nonpayable",
      "type": "function"
    },
    {
      "inputs": [],
      "name": "clippyPhygitalAddress",
      "outputs": [
        {
          "internalType": "address",
          "name": "",
          "type": "address"
        }
      ],
      "stateMutability": "view",
      "type": "function"
    },
    {
      "inputs": [
        {
          "internalType": "uint256",
          "name": "tokenId",
          "type": "uint256"
        }
      ],
      "name": "getApproved",
      "outputs": [
        {
          "internalType": "address",
          "name": "",
          "type": "address"
        }
      ],
      "stateMutability": "view",
      "type": "function"
    },
    {
      "inputs": [
        {
          "internalType": "address",
          "name": "owner",
          "type": "address"
        },
        {
          "internalType": "address",
          "name": "operator",
          "type": "address"
        }
      ],
      "name": "isApprovedForAll",
      "outputs": [
        {
          "internalType": "bool",
          "name": "",
          "type": "bool"
        }
      ],
      "stateMutability": "view",
      "type": "function"
    },
    {
      "inputs": [
        {
          "internalType": "address",
          "name": "recipient",
          "type": "address"
        },
        {
          "internalType": "string",
          "name": "uri",
          "type": "string"
        }
      ],
      "name": "mint",
      "outputs": [
        {
          "internalType": "uint256",
          "name": "",
          "type": "uint256"
        }
      ],
      "stateMutability": "payable",
      "type": "function"
    },
    {
      "inputs": [],
      "name": "name",
      "outputs": [
        {
          "internalType": "string",
          "name": "",
          "type": "string"
        }
      ],
      "stateMutability": "view",
      "type": "function"
    },
    {
      "inputs": [],
      "name": "owner",
      "outputs": [
        {
          "internalType": "address",
          "name": "",
          "type": "address"
        }
      ],
      "stateMutability": "view",
      "type": "function"
    },
    {
      "inputs": [
        {
          "internalType": "uint256",
          "name": "tokenId",
          "type": "uint256"
        }
      ],
      "name": "ownerOf",
      "outputs": [
        {
          "internalType": "address",
          "name": "",
          "type": "address"
        }
      ],
      "stateMutability": "view",
      "type": "function"
    },
    {
      "inputs": [],
      "name": "renounceOwnership",
      "outputs": [],
      "stateMutability": "nonpayable",
      "type": "function"
    },
    {
      "inputs": [
        {
          "internalType": "address",
          "name": "from",
          "type": "address"
        },
        {
          "internalType": "address",
          "name": "to",
          "type": "address"
        },
        {
          "internalType": "uint256",
          "name": "tokenId",
          "type": "uint256"
        }
      ],
      "name": "safeTransferFrom",
      "outputs": [],
      "stateMutability": "nonpayable",
      "type": "function"
    },
    {
      "inputs": [
        {
          "internalType": "address",
          "name": "from",
          "type": "address"
        },
        {
          "internalType": "address",
          "name": "to",
          "type": "address"
        },
        {
          "internalType": "uint256",
          "name": "tokenId",
          "type": "uint256"
        },
        {
          "internalType": "bytes",
          "name": "_data",
          "type": "bytes"
        }
      ],
      "name": "safeTransferFrom",
      "outputs": [],
      "stateMutability": "nonpayable",
      "type": "function"
    },
    {
      "inputs": [
        {
          "internalType": "address",
          "name": "operator",
          "type": "address"
        },
        {
          "internalType": "bool",
          "name": "approved",
          "type": "bool"
        }
      ],
      "name": "setApprovalForAll",
      "outputs": [],
      "stateMutability": "nonpayable",
      "type": "function"
    },
    {
      "inputs": [
        {
          "internalType": "address",
          "name": "_clippyPhygitalAddress",
          "type": "address"
        }
      ],
      "name": "setWhitelistMintAddress",
      "outputs": [],
      "stateMutability": "nonpayable",
      "type": "function"
    },
    {
      "inputs": [
        {
          "internalType": "bytes4",
          "name": "interfaceId",
          "type": "bytes4"
        }
      ],
      "name": "supportsInterface",
      "outputs": [
        {
          "internalType": "bool",
          "name": "",
          "type": "bool"
        }
      ],
      "stateMutability": "view",
      "type": "function"
    },
    {
      "inputs": [],
      "name": "symbol",
      "outputs": [
        {
          "internalType": "string",
          "name": "",
          "type": "string"
        }
      ],
      "stateMutability": "view",
      "type": "function"
    },
    {
      "inputs": [
        {
          "internalType": "uint256",
          "name": "index",
          "type": "uint256"
        }
      ],
      "name": "tokenByIndex",
      "outputs": [
        {
          "internalType": "uint256",
          "name": "",
          "type": "uint256"
        }
      ],
      "stateMutability": "view",
      "type": "function"
    },
    {
      "inputs": [
        {
          "internalType": "address",
          "name": "owner",
          "type": "address"
        },
        {
          "internalType": "uint256",
          "name": "index",
          "type": "uint256"
        }
      ],
      "name": "tokenOfOwnerByIndex",
      "outputs": [
        {
          "internalType": "uint256",
          "name": "",
          "type": "uint256"
        }
      ],
      "stateMutability": "view",
      "type": "function"
    },
    {
      "inputs": [
        {
          "internalType": "uint256",
          "name": "tokenId",
          "type": "uint256"
        }
      ],
      "name": "tokenURI",
      "outputs": [
        {
          "internalType": "string",
          "name": "",
          "type": "string"
        }
      ],
      "stateMutability": "view",
      "type": "function"
    },
    {
      "inputs": [],
      "name": "totalSupply",
      "outputs": [
        {
          "internalType": "uint256",
          "name": "",
          "type": "uint256"
        }
      ],
      "stateMutability": "view",
      "type": "function"
    },
    {
      "inputs": [
        {
          "internalType": "address",
          "name": "from",
          "type": "address"
        },
        {
          "internalType": "address",
          "name": "to",
          "type": "address"
        },
        {
          "internalType": "uint256",
          "name": "tokenId",
          "type": "uint256"
        }
      ],
      "name": "transferFrom",
      "outputs": [],
      "stateMutability": "nonpayable",
      "type": "function"
    },
    {
      "inputs": [
        {
          "internalType": "address",
          "name": "newOwner",
          "type": "address"
        }
      ],
      "name": "transferOwnership",
      "outputs": [],
      "stateMutability": "nonpayable",
      "type": "function"
    }
  ],
  "bytecode": "0x60806040523480156200001157600080fd5b506040518060400160405280600d81526020017f436c697070794469676974616c000000000000000000000000000000000000008152506040518060400160405280600581526020017f434c495044000000000000000000000000000000000000000000000000000000815250816000908051906020019062000096929190620001a6565b508060019080519060200190620000af929190620001a6565b505050620000d2620000c6620000d860201b60201c565b620000e060201b60201c565b620002bb565b600033905090565b6000600660009054906101000a900473ffffffffffffffffffffffffffffffffffffffff16905081600660006101000a81548173ffffffffffffffffffffffffffffffffffffffff021916908373ffffffffffffffffffffffffffffffffffffffff1602179055508173ffffffffffffffffffffffffffffffffffffffff168173ffffffffffffffffffffffffffffffffffffffff167f8be0079c531659141344cd1fd0a4f28419497f9722a3daafe3b4186f6b6457e060405160405180910390a35050565b828054620001b49062000285565b90600052602060002090601f016020900481019282620001d8576000855562000224565b82601f10620001f357805160ff191683800117855562000224565b8280016001018555821562000224579182015b828111156200022357825182559160200191906001019062000206565b5b50905062000233919062000237565b5090565b5b808211156200025257600081600090555060010162000238565b5090565b7f4e487b7100000000000000000000000000000000000000000000000000000000600052602260045260246000fd5b600060028204905060018216806200029e57607f821691505b60208210811415620002b557620002b462000256565b5b50919050565b61390980620002cb6000396000f3fe6080604052600436106101405760003560e01c80636352211e116100b6578063b88d4fde1161006f578063b88d4fde1461046c578063c87b56dd14610495578063d0def521146104d2578063e985e9c514610502578063ecae5ca41461053f578063f2fde38b1461056a57610140565b80636352211e1461035c57806370a0823114610399578063715018a6146103d65780638da5cb5b146103ed57806395d89b4114610418578063a22cb4651461044357610140565b806320532ecc1161010857806320532ecc1461023e57806323b872dd146102675780632f745c591461029057806342842e0e146102cd57806342966c68146102f65780634f6ccce71461031f57610140565b806301ffc9a71461014557806306fdde0314610182578063081812fc146101ad578063095ea7b3146101ea57806318160ddd14610213575b600080fd5b34801561015157600080fd5b5061016c600480360381019061016791906124c2565b610593565b604051610179919061250a565b60405180910390f35b34801561018e57600080fd5b506101976105a5565b6040516101a491906125be565b60405180910390f35b3480156101b957600080fd5b506101d460048036038101906101cf9190612616565b610637565b6040516101e19190612684565b60405180910390f35b3480156101f657600080fd5b50610211600480360381019061020c91906126cb565b6106bc565b005b34801561021f57600080fd5b506102286107d4565b604051610235919061271a565b60405180910390f35b34801561024a57600080fd5b5061026560048036038101906102609190612735565b6107e1565b005b34801561027357600080fd5b5061028e60048036038101906102899190612762565b6108a1565b005b34801561029c57600080fd5b506102b760048036038101906102b291906126cb565b610901565b6040516102c4919061271a565b60405180910390f35b3480156102d957600080fd5b506102f460048036038101906102ef9190612762565b6109a6565b005b34801561030257600080fd5b5061031d60048036038101906103189190612616565b6109c6565b005b34801561032b57600080fd5b5061034660048036038101906103419190612616565b610a22565b604051610353919061271a565b60405180910390f35b34801561036857600080fd5b50610383600480360381019061037e9190612616565b610a93565b6040516103909190612684565b60405180910390f35b3480156103a557600080fd5b506103c060048036038101906103bb9190612735565b610b45565b6040516103cd919061271a565b60405180910390f35b3480156103e257600080fd5b506103eb610bfd565b005b3480156103f957600080fd5b50610402610c85565b60405161040f9190612684565b60405180910390f35b34801561042457600080fd5b5061042d610caf565b60405161043a91906125be565b60405180910390f35b34801561044f57600080fd5b5061046a600480360381019061046591906127e1565b610d41565b005b34801561047857600080fd5b50610493600480360381019061048e9190612956565b610d57565b005b3480156104a157600080fd5b506104bc60048036038101906104b79190612616565b610db9565b6040516104c991906125be565b60405180910390f35b6104ec60048036038101906104e79190612a7a565b610eac565b6040516104f9919061271a565b60405180910390f35b34801561050e57600080fd5b5061052960048036038101906105249190612ad6565b611005565b604051610536919061250a565b60405180910390f35b34801561054b57600080fd5b50610554611099565b6040516105619190612684565b60405180910390f35b34801561057657600080fd5b50610591600480360381019061058c9190612735565b6110bf565b005b600061059e826111b7565b9050919050565b6060600080546105b490612b45565b80601f01602080910402602001604051908101604052809291908181526020018280546105e090612b45565b801561062d5780601f106106025761010080835404028352916020019161062d565b820191906000526020600020905b81548152906001019060200180831161061057829003601f168201915b5050505050905090565b600061064282611231565b610681576040517f08c379a000000000000000000000000000000000000000000000000000000000815260040161067890612be9565b60405180910390fd5b6004600083815260200190815260200160002060009054906101000a900473ffffffffffffffffffffffffffffffffffffffff169050919050565b60006106c782610a93565b90508073ffffffffffffffffffffffffffffffffffffffff168373ffffffffffffffffffffffffffffffffffffffff161415610738576040517f08c379a000000000000000000000000000000000000000000000000000000000815260040161072f90612c7b565b60405180910390fd5b8073ffffffffffffffffffffffffffffffffffffffff1661075761129d565b73ffffffffffffffffffffffffffffffffffffffff16148061078657506107858161078061129d565b611005565b5b6107c5576040517f08c379a00000000000000000000000000000000000000000000000000000000081526004016107bc90612d0d565b60405180910390fd5b6107cf83836112a5565b505050565b6000600980549050905090565b6107e961129d565b73ffffffffffffffffffffffffffffffffffffffff16610807610c85565b73ffffffffffffffffffffffffffffffffffffffff161461085d576040517f08c379a000000000000000000000000000000000000000000000000000000000815260040161085490612d79565b60405180910390fd5b80600b60006101000a81548173ffffffffffffffffffffffffffffffffffffffff021916908373ffffffffffffffffffffffffffffffffffffffff16021790555050565b6108b26108ac61129d565b8261135e565b6108f1576040517f08c379a00000000000000000000000000000000000000000000000000000000081526004016108e890612e0b565b60405180910390fd5b6108fc83838361143c565b505050565b600061090c83610b45565b821061094d576040517f08c379a000000000000000000000000000000000000000000000000000000000815260040161094490612e9d565b60405180910390fd5b600760008473ffffffffffffffffffffffffffffffffffffffff1673ffffffffffffffffffffffffffffffffffffffff168152602001908152602001600020600083815260200190815260200160002054905092915050565b6109c183838360405180602001604052806000815250610d57565b505050565b6109d76109d161129d565b8261135e565b610a16576040517f08c379a0000000000000000000000000000000000000000000000000000000008152600401610a0d90612f2f565b60405180910390fd5b610a1f816116a3565b50565b6000610a2c6107d4565b8210610a6d576040517f08c379a0000000000000000000000000000000000000000000000000000000008152600401610a6490612fc1565b60405180910390fd5b60098281548110610a8157610a80612fe1565b5b90600052602060002001549050919050565b6000806002600084815260200190815260200160002060009054906101000a900473ffffffffffffffffffffffffffffffffffffffff169050600073ffffffffffffffffffffffffffffffffffffffff168173ffffffffffffffffffffffffffffffffffffffff161415610b3c576040517f08c379a0000000000000000000000000000000000000000000000000000000008152600401610b3390613082565b60405180910390fd5b80915050919050565b60008073ffffffffffffffffffffffffffffffffffffffff168273ffffffffffffffffffffffffffffffffffffffff161415610bb6576040517f08c379a0000000000000000000000000000000000000000000000000000000008152600401610bad90613114565b60405180910390fd5b600360008373ffffffffffffffffffffffffffffffffffffffff1673ffffffffffffffffffffffffffffffffffffffff168152602001908152602001600020549050919050565b610c0561129d565b73ffffffffffffffffffffffffffffffffffffffff16610c23610c85565b73ffffffffffffffffffffffffffffffffffffffff1614610c79576040517f08c379a0000000000000000000000000000000000000000000000000000000008152600401610c7090612d79565b60405180910390fd5b610c8360006117c0565b565b6000600660009054906101000a900473ffffffffffffffffffffffffffffffffffffffff16905090565b606060018054610cbe90612b45565b80601f0160208091040260200160405190810160405280929190818152602001828054610cea90612b45565b8015610d375780601f10610d0c57610100808354040283529160200191610d37565b820191906000526020600020905b815481529060010190602001808311610d1a57829003601f168201915b5050505050905090565b610d53610d4c61129d565b8383611886565b5050565b610d68610d6261129d565b8361135e565b610da7576040517f08c379a0000000000000000000000000000000000000000000000000000000008152600401610d9e90612e0b565b60405180910390fd5b610db3848484846119f3565b50505050565b6060610dc482611231565b610e03576040517f08c379a0000000000000000000000000000000000000000000000000000000008152600401610dfa906131a6565b60405180910390fd5b6000600d60008481526020019081526020016000208054610e2390612b45565b80601f0160208091040260200160405190810160405280929190818152602001828054610e4f90612b45565b8015610e9c5780601f10610e7157610100808354040283529160200191610e9c565b820191906000526020600020905b815481529060010190602001808311610e7f57829003601f168201915b5050505050905080915050919050565b60008073ffffffffffffffffffffffffffffffffffffffff16600b60009054906101000a900473ffffffffffffffffffffffffffffffffffffffff1673ffffffffffffffffffffffffffffffffffffffff161415610f3f576040517f08c379a0000000000000000000000000000000000000000000000000000000008152600401610f3690613238565b60405180910390fd5b600b60009054906101000a900473ffffffffffffffffffffffffffffffffffffffff1673ffffffffffffffffffffffffffffffffffffffff163373ffffffffffffffffffffffffffffffffffffffff1614610fcf576040517f08c379a0000000000000000000000000000000000000000000000000000000008152600401610fc6906132ca565b60405180910390fd5b610fd9600c611a4f565b6000610fe5600c611a65565b9050610ff18482611a73565b610ffb8184611c4d565b8091505092915050565b6000600560008473ffffffffffffffffffffffffffffffffffffffff1673ffffffffffffffffffffffffffffffffffffffff16815260200190815260200160002060008373ffffffffffffffffffffffffffffffffffffffff1673ffffffffffffffffffffffffffffffffffffffff16815260200190815260200160002060009054906101000a900460ff16905092915050565b600b60009054906101000a900473ffffffffffffffffffffffffffffffffffffffff1681565b6110c761129d565b73ffffffffffffffffffffffffffffffffffffffff166110e5610c85565b73ffffffffffffffffffffffffffffffffffffffff161461113b576040517f08c379a000000000000000000000000000000000000000000000000000000000815260040161113290612d79565b60405180910390fd5b600073ffffffffffffffffffffffffffffffffffffffff168173ffffffffffffffffffffffffffffffffffffffff1614156111ab576040517f08c379a00000000000000000000000000000000000000000000000000000000081526004016111a29061335c565b60405180910390fd5b6111b4816117c0565b50565b60007f780e9d63000000000000000000000000000000000000000000000000000000007bffffffffffffffffffffffffffffffffffffffffffffffffffffffff1916827bffffffffffffffffffffffffffffffffffffffffffffffffffffffff1916148061122a575061122982611c79565b5b9050919050565b60008073ffffffffffffffffffffffffffffffffffffffff166002600084815260200190815260200160002060009054906101000a900473ffffffffffffffffffffffffffffffffffffffff1673ffffffffffffffffffffffffffffffffffffffff1614159050919050565b600033905090565b816004600083815260200190815260200160002060006101000a81548173ffffffffffffffffffffffffffffffffffffffff021916908373ffffffffffffffffffffffffffffffffffffffff160217905550808273ffffffffffffffffffffffffffffffffffffffff1661131883610a93565b73ffffffffffffffffffffffffffffffffffffffff167f8c5be1e5ebec7d5bd14f71427d1e84f3dd0314c0f7b2291e5b200ac8c7c3b92560405160405180910390a45050565b600061136982611231565b6113a8576040517f08c379a000000000000000000000000000000000000000000000000000000000815260040161139f906133ee565b60405180910390fd5b60006113b383610a93565b90508073ffffffffffffffffffffffffffffffffffffffff168473ffffffffffffffffffffffffffffffffffffffff16148061142257508373ffffffffffffffffffffffffffffffffffffffff1661140a84610637565b73ffffffffffffffffffffffffffffffffffffffff16145b8061143357506114328185611005565b5b91505092915050565b8273ffffffffffffffffffffffffffffffffffffffff1661145c82610a93565b73ffffffffffffffffffffffffffffffffffffffff16146114b2576040517f08c379a00000000000000000000000000000000000000000000000000000000081526004016114a990613480565b60405180910390fd5b600073ffffffffffffffffffffffffffffffffffffffff168273ffffffffffffffffffffffffffffffffffffffff161415611522576040517f08c379a000000000000000000000000000000000000000000000000000000000815260040161151990613512565b60405180910390fd5b61152d838383611d5b565b6115386000826112a5565b6001600360008573ffffffffffffffffffffffffffffffffffffffff1673ffffffffffffffffffffffffffffffffffffffff16815260200190815260200160002060008282546115889190613561565b925050819055506001600360008473ffffffffffffffffffffffffffffffffffffffff1673ffffffffffffffffffffffffffffffffffffffff16815260200190815260200160002060008282546115df9190613595565b92505081905550816002600083815260200190815260200160002060006101000a81548173ffffffffffffffffffffffffffffffffffffffff021916908373ffffffffffffffffffffffffffffffffffffffff160217905550808273ffffffffffffffffffffffffffffffffffffffff168473ffffffffffffffffffffffffffffffffffffffff167fddf252ad1be2c89b69c2b068fc378daa952ba7f163c4a11628f55a4df523b3ef60405160405180910390a461169e838383611d6b565b505050565b60006116ae82610a93565b90506116bc81600084611d5b565b6116c76000836112a5565b6001600360008373ffffffffffffffffffffffffffffffffffffffff1673ffffffffffffffffffffffffffffffffffffffff16815260200190815260200160002060008282546117179190613561565b925050819055506002600083815260200190815260200160002060006101000a81549073ffffffffffffffffffffffffffffffffffffffff021916905581600073ffffffffffffffffffffffffffffffffffffffff168273ffffffffffffffffffffffffffffffffffffffff167fddf252ad1be2c89b69c2b068fc378daa952ba7f163c4a11628f55a4df523b3ef60405160405180910390a46117bc81600084611d6b565b5050565b6000600660009054906101000a900473ffffffffffffffffffffffffffffffffffffffff16905081600660006101000a81548173ffffffffffffffffffffffffffffffffffffffff021916908373ffffffffffffffffffffffffffffffffffffffff1602179055508173ffffffffffffffffffffffffffffffffffffffff168173ffffffffffffffffffffffffffffffffffffffff167f8be0079c531659141344cd1fd0a4f28419497f9722a3daafe3b4186f6b6457e060405160405180910390a35050565b8173ffffffffffffffffffffffffffffffffffffffff168373ffffffffffffffffffffffffffffffffffffffff1614156118f5576040517f08c379a00000000000000000000000000000000000000000000000000000000081526004016118ec90613637565b60405180910390fd5b80600560008573ffffffffffffffffffffffffffffffffffffffff1673ffffffffffffffffffffffffffffffffffffffff16815260200190815260200160002060008473ffffffffffffffffffffffffffffffffffffffff1673ffffffffffffffffffffffffffffffffffffffff16815260200190815260200160002060006101000a81548160ff0219169083151502179055508173ffffffffffffffffffffffffffffffffffffffff168373ffffffffffffffffffffffffffffffffffffffff167f17307eab39ab6107e8899845ad3d59bd9653f200f220920489ca2b5937696c31836040516119e6919061250a565b60405180910390a3505050565b6119fe84848461143c565b611a0a84848484611d70565b611a49576040517f08c379a0000000000000000000000000000000000000000000000000000000008152600401611a40906136c9565b60405180910390fd5b50505050565b6001816000016000828254019250508190555050565b600081600001549050919050565b600073ffffffffffffffffffffffffffffffffffffffff168273ffffffffffffffffffffffffffffffffffffffff161415611ae3576040517f08c379a0000000000000000000000000000000000000000000000000000000008152600401611ada90613735565b60405180910390fd5b611aec81611231565b15611b2c576040517f08c379a0000000000000000000000000000000000000000000000000000000008152600401611b23906137a1565b60405180910390fd5b611b3860008383611d5b565b6001600360008473ffffffffffffffffffffffffffffffffffffffff1673ffffffffffffffffffffffffffffffffffffffff1681526020019081526020016000206000828254611b889190613595565b92505081905550816002600083815260200190815260200160002060006101000a81548173ffffffffffffffffffffffffffffffffffffffff021916908373ffffffffffffffffffffffffffffffffffffffff160217905550808273ffffffffffffffffffffffffffffffffffffffff16600073ffffffffffffffffffffffffffffffffffffffff167fddf252ad1be2c89b69c2b068fc378daa952ba7f163c4a11628f55a4df523b3ef60405160405180910390a4611c4960008383611d6b565b5050565b80600d60008481526020019081526020016000209080519060200190611c749291906123b3565b505050565b60007f80ac58cd000000000000000000000000000000000000000000000000000000007bffffffffffffffffffffffffffffffffffffffffffffffffffffffff1916827bffffffffffffffffffffffffffffffffffffffffffffffffffffffff19161480611d4457507f5b5e139f000000000000000000000000000000000000000000000000000000007bffffffffffffffffffffffffffffffffffffffffffffffffffffffff1916827bffffffffffffffffffffffffffffffffffffffffffffffffffffffff1916145b80611d545750611d5382611f07565b5b9050919050565b611d66838383611f71565b505050565b505050565b6000611d918473ffffffffffffffffffffffffffffffffffffffff16612085565b15611efa578373ffffffffffffffffffffffffffffffffffffffff1663150b7a02611dba61129d565b8786866040518563ffffffff1660e01b8152600401611ddc9493929190613816565b602060405180830381600087803b158015611df657600080fd5b505af1925050508015611e2757506040513d601f19601f82011682018060405250810190611e249190613877565b60015b611eaa573d8060008114611e57576040519150601f19603f3d011682016040523d82523d6000602084013e611e5c565b606091505b50600081511415611ea2576040517f08c379a0000000000000000000000000000000000000000000000000000000008152600401611e99906136c9565b60405180910390fd5b805181602001fd5b63150b7a0260e01b7bffffffffffffffffffffffffffffffffffffffffffffffffffffffff1916817bffffffffffffffffffffffffffffffffffffffffffffffffffffffff191614915050611eff565b600190505b949350505050565b60007f01ffc9a7000000000000000000000000000000000000000000000000000000007bffffffffffffffffffffffffffffffffffffffffffffffffffffffff1916827bffffffffffffffffffffffffffffffffffffffffffffffffffffffff1916149050919050565b611f7c8383836120a8565b600073ffffffffffffffffffffffffffffffffffffffff168373ffffffffffffffffffffffffffffffffffffffff161415611fbf57611fba816120ad565b611ffe565b8173ffffffffffffffffffffffffffffffffffffffff168373ffffffffffffffffffffffffffffffffffffffff1614611ffd57611ffc83826120f6565b5b5b600073ffffffffffffffffffffffffffffffffffffffff168273ffffffffffffffffffffffffffffffffffffffff1614156120415761203c81612263565b612080565b8273ffffffffffffffffffffffffffffffffffffffff168273ffffffffffffffffffffffffffffffffffffffff161461207f5761207e8282612334565b5b5b505050565b6000808273ffffffffffffffffffffffffffffffffffffffff163b119050919050565b505050565b600980549050600a600083815260200190815260200160002081905550600981908060018154018082558091505060019003906000526020600020016000909190919091505550565b6000600161210384610b45565b61210d9190613561565b90506000600860008481526020019081526020016000205490508181146121f2576000600760008673ffffffffffffffffffffffffffffffffffffffff1673ffffffffffffffffffffffffffffffffffffffff168152602001908152602001600020600084815260200190815260200160002054905080600760008773ffffffffffffffffffffffffffffffffffffffff1673ffffffffffffffffffffffffffffffffffffffff168152602001908152602001600020600084815260200190815260200160002081905550816008600083815260200190815260200160002081905550505b6008600084815260200190815260200160002060009055600760008573ffffffffffffffffffffffffffffffffffffffff1673ffffffffffffffffffffffffffffffffffffffff16815260200190815260200160002060008381526020019081526020016000206000905550505050565b600060016009805490506122779190613561565b90506000600a60008481526020019081526020016000205490506000600983815481106122a7576122a6612fe1565b5b9060005260206000200154905080600983815481106122c9576122c8612fe1565b5b906000526020600020018190555081600a600083815260200190815260200160002081905550600a6000858152602001908152602001600020600090556009805480612318576123176138a4565b5b6001900381819060005260206000200160009055905550505050565b600061233f83610b45565b905081600760008573ffffffffffffffffffffffffffffffffffffffff1673ffffffffffffffffffffffffffffffffffffffff168152602001908152602001600020600083815260200190815260200160002081905550806008600084815260200190815260200160002081905550505050565b8280546123bf90612b45565b90600052602060002090601f0160209004810192826123e15760008555612428565b82601f106123fa57805160ff1916838001178555612428565b82800160010185558215612428579182015b8281111561242757825182559160200191906001019061240c565b5b5090506124359190612439565b5090565b5b8082111561245257600081600090555060010161243a565b5090565b6000604051905090565b600080fd5b600080fd5b60007fffffffff0000000000000000000000000000000000000000000000000000000082169050919050565b61249f8161246a565b81146124aa57600080fd5b50565b6000813590506124bc81612496565b92915050565b6000602082840312156124d8576124d7612460565b5b60006124e6848285016124ad565b91505092915050565b60008115159050919050565b612504816124ef565b82525050565b600060208201905061251f60008301846124fb565b92915050565b600081519050919050565b600082825260208201905092915050565b60005b8381101561255f578082015181840152602081019050612544565b8381111561256e576000848401525b50505050565b6000601f19601f8301169050919050565b600061259082612525565b61259a8185612530565b93506125aa818560208601612541565b6125b381612574565b840191505092915050565b600060208201905081810360008301526125d88184612585565b905092915050565b6000819050919050565b6125f3816125e0565b81146125fe57600080fd5b50565b600081359050612610816125ea565b92915050565b60006020828403121561262c5761262b612460565b5b600061263a84828501612601565b91505092915050565b600073ffffffffffffffffffffffffffffffffffffffff82169050919050565b600061266e82612643565b9050919050565b61267e81612663565b82525050565b60006020820190506126996000830184612675565b92915050565b6126a881612663565b81146126b357600080fd5b50565b6000813590506126c58161269f565b92915050565b600080604083850312156126e2576126e1612460565b5b60006126f0858286016126b6565b925050602061270185828601612601565b9150509250929050565b612714816125e0565b82525050565b600060208201905061272f600083018461270b565b92915050565b60006020828403121561274b5761274a612460565b5b6000612759848285016126b6565b91505092915050565b60008060006060848603121561277b5761277a612460565b5b6000612789868287016126b6565b935050602061279a868287016126b6565b92505060406127ab86828701612601565b9150509250925092565b6127be816124ef565b81146127c957600080fd5b50565b6000813590506127db816127b5565b92915050565b600080604083850312156127f8576127f7612460565b5b6000612806858286016126b6565b9250506020612817858286016127cc565b9150509250929050565b600080fd5b600080fd5b7f4e487b7100000000000000000000000000000000000000000000000000000000600052604160045260246000fd5b61286382612574565b810181811067ffffffffffffffff821117156128825761288161282b565b5b80604052505050565b6000612895612456565b90506128a1828261285a565b919050565b600067ffffffffffffffff8211156128c1576128c061282b565b5b6128ca82612574565b9050602081019050919050565b82818337600083830152505050565b60006128f96128f4846128a6565b61288b565b90508281526020810184848401111561291557612914612826565b5b6129208482856128d7565b509392505050565b600082601f83011261293d5761293c612821565b5b813561294d8482602086016128e6565b91505092915050565b600080600080608085870312156129705761296f612460565b5b600061297e878288016126b6565b945050602061298f878288016126b6565b93505060406129a087828801612601565b925050606085013567ffffffffffffffff8111156129c1576129c0612465565b5b6129cd87828801612928565b91505092959194509250565b600067ffffffffffffffff8211156129f4576129f361282b565b5b6129fd82612574565b9050602081019050919050565b6000612a1d612a18846129d9565b61288b565b905082815260208101848484011115612a3957612a38612826565b5b612a448482856128d7565b509392505050565b600082601f830112612a6157612a60612821565b5b8135612a71848260208601612a0a565b91505092915050565b60008060408385031215612a9157612a90612460565b5b6000612a9f858286016126b6565b925050602083013567ffffffffffffffff811115612ac057612abf612465565b5b612acc85828601612a4c565b9150509250929050565b60008060408385031215612aed57612aec612460565b5b6000612afb858286016126b6565b9250506020612b0c858286016126b6565b9150509250929050565b7f4e487b7100000000000000000000000000000000000000000000000000000000600052602260045260246000fd5b60006002820490506001821680612b5d57607f821691505b60208210811415612b7157612b70612b16565b5b50919050565b7f4552433732313a20617070726f76656420717565727920666f72206e6f6e657860008201527f697374656e7420746f6b656e0000000000000000000000000000000000000000602082015250565b6000612bd3602c83612530565b9150612bde82612b77565b604082019050919050565b60006020820190508181036000830152612c0281612bc6565b9050919050565b7f4552433732313a20617070726f76616c20746f2063757272656e74206f776e6560008201527f7200000000000000000000000000000000000000000000000000000000000000602082015250565b6000612c65602183612530565b9150612c7082612c09565b604082019050919050565b60006020820190508181036000830152612c9481612c58565b9050919050565b7f4552433732313a20617070726f76652063616c6c6572206973206e6f74206f7760008201527f6e6572206e6f7220617070726f76656420666f7220616c6c0000000000000000602082015250565b6000612cf7603883612530565b9150612d0282612c9b565b604082019050919050565b60006020820190508181036000830152612d2681612cea565b9050919050565b7f4f776e61626c653a2063616c6c6572206973206e6f7420746865206f776e6572600082015250565b6000612d63602083612530565b9150612d6e82612d2d565b602082019050919050565b60006020820190508181036000830152612d9281612d56565b9050919050565b7f4552433732313a207472616e736665722063616c6c6572206973206e6f74206f60008201527f776e6572206e6f7220617070726f766564000000000000000000000000000000602082015250565b6000612df5603183612530565b9150612e0082612d99565b604082019050919050565b60006020820190508181036000830152612e2481612de8565b9050919050565b7f455243373231456e756d657261626c653a206f776e657220696e646578206f7560008201527f74206f6620626f756e6473000000000000000000000000000000000000000000602082015250565b6000612e87602b83612530565b9150612e9282612e2b565b604082019050919050565b60006020820190508181036000830152612eb681612e7a565b9050919050565b7f4552433732314275726e61626c653a2063616c6c6572206973206e6f74206f7760008201527f6e6572206e6f7220617070726f76656400000000000000000000000000000000602082015250565b6000612f19603083612530565b9150612f2482612ebd565b604082019050919050565b60006020820190508181036000830152612f4881612f0c565b9050919050565b7f455243373231456e756d657261626c653a20676c6f62616c20696e646578206f60008201527f7574206f6620626f756e64730000000000000000000000000000000000000000602082015250565b6000612fab602c83612530565b9150612fb682612f4f565b604082019050919050565b60006020820190508181036000830152612fda81612f9e565b9050919050565b7f4e487b7100000000000000000000000000000000000000000000000000000000600052603260045260246000fd5b7f4552433732313a206f776e657220717565727920666f72206e6f6e657869737460008201527f656e7420746f6b656e0000000000000000000000000000000000000000000000602082015250565b600061306c602983612530565b915061307782613010565b604082019050919050565b6000602082019050818103600083015261309b8161305f565b9050919050565b7f4552433732313a2062616c616e636520717565727920666f7220746865207a6560008201527f726f206164647265737300000000000000000000000000000000000000000000602082015250565b60006130fe602a83612530565b9150613109826130a2565b604082019050919050565b6000602082019050818103600083015261312d816130f1565b9050919050565b7f4552433732314d657461646174613a2055524920717565727920666f72206e6f60008201527f6e6578697374656e7420746f6b656e0000000000000000000000000000000000602082015250565b6000613190602f83612530565b915061319b82613134565b604082019050919050565b600060208201905081810360008301526131bf81613183565b9050919050565b7f436c6970707920506879676974616c2061646472657373206d7573742062652060008201527f7365740000000000000000000000000000000000000000000000000000000000602082015250565b6000613222602383612530565b915061322d826131c6565b604082019050919050565b6000602082019050818103600083015261325181613215565b9050919050565b7f4f6e6c7920506879676974616c20636f6e74726163742063616e206d696e742060008201527f4469676974616c204e4654730000000000000000000000000000000000000000602082015250565b60006132b4602c83612530565b91506132bf82613258565b604082019050919050565b600060208201905081810360008301526132e3816132a7565b9050919050565b7f4f776e61626c653a206e6577206f776e657220697320746865207a65726f206160008201527f6464726573730000000000000000000000000000000000000000000000000000602082015250565b6000613346602683612530565b9150613351826132ea565b604082019050919050565b6000602082019050818103600083015261337581613339565b9050919050565b7f4552433732313a206f70657261746f7220717565727920666f72206e6f6e657860008201527f697374656e7420746f6b656e0000000000000000000000000000000000000000602082015250565b60006133d8602c83612530565b91506133e38261337c565b604082019050919050565b60006020820190508181036000830152613407816133cb565b9050919050565b7f4552433732313a207472616e736665722066726f6d20696e636f72726563742060008201527f6f776e6572000000000000000000000000000000000000000000000000000000602082015250565b600061346a602583612530565b91506134758261340e565b604082019050919050565b600060208201905081810360008301526134998161345d565b9050919050565b7f4552433732313a207472616e7366657220746f20746865207a65726f2061646460008201527f7265737300000000000000000000000000000000000000000000000000000000602082015250565b60006134fc602483612530565b9150613507826134a0565b604082019050919050565b6000602082019050818103600083015261352b816134ef565b9050919050565b7f4e487b7100000000000000000000000000000000000000000000000000000000600052601160045260246000fd5b600061356c826125e0565b9150613577836125e0565b92508282101561358a57613589613532565b5b828203905092915050565b60006135a0826125e0565b91506135ab836125e0565b9250827fffffffffffffffffffffffffffffffffffffffffffffffffffffffffffffffff038211156135e0576135df613532565b5b828201905092915050565b7f4552433732313a20617070726f766520746f2063616c6c657200000000000000600082015250565b6000613621601983612530565b915061362c826135eb565b602082019050919050565b6000602082019050818103600083015261365081613614565b9050919050565b7f4552433732313a207472616e7366657220746f206e6f6e20455243373231526560008201527f63656976657220696d706c656d656e7465720000000000000000000000000000602082015250565b60006136b3603283612530565b91506136be82613657565b604082019050919050565b600060208201905081810360008301526136e2816136a6565b9050919050565b7f4552433732313a206d696e7420746f20746865207a65726f2061646472657373600082015250565b600061371f602083612530565b915061372a826136e9565b602082019050919050565b6000602082019050818103600083015261374e81613712565b9050919050565b7f4552433732313a20746f6b656e20616c7265616479206d696e74656400000000600082015250565b600061378b601c83612530565b915061379682613755565b602082019050919050565b600060208201905081810360008301526137ba8161377e565b9050919050565b600081519050919050565b600082825260208201905092915050565b60006137e8826137c1565b6137f281856137cc565b9350613802818560208601612541565b61380b81612574565b840191505092915050565b600060808201905061382b6000830187612675565b6138386020830186612675565b613845604083018561270b565b818103606083015261385781846137dd565b905095945050505050565b60008151905061387181612496565b92915050565b60006020828403121561388d5761388c612460565b5b600061389b84828501613862565b91505092915050565b7f4e487b7100000000000000000000000000000000000000000000000000000000600052603160045260246000fdfea26469706673582212203ef3cb921528af604a77bb0107840c70caa58995e9f3dd4d433e939e7712222864736f6c63430008080033",
  "linkReferences": {},
  "deployedLinkReferences": {}
}